{
  "contractName": "BackerLogin",
  "abi": [
    {
      "inputs": [
        {
          "internalType": "address",
          "name": "",
          "type": "address"
        }
      ],
      "name": "users",
      "outputs": [
        {
          "internalType": "bytes32",
          "name": "",
          "type": "bytes32"
        }
      ],
      "stateMutability": "view",
      "type": "function",
      "constant": true
    },
    {
      "inputs": [
        {
          "internalType": "string",
          "name": "_email",
          "type": "string"
        },
        {
          "internalType": "string",
          "name": "_password",
          "type": "string"
        }
      ],
      "name": "register",
      "outputs": [],
      "stateMutability": "nonpayable",
      "type": "function"
    },
    {
      "inputs": [
        {
          "internalType": "string",
          "name": "_email",
          "type": "string"
        },
        {
          "internalType": "string",
          "name": "_password",
          "type": "string"
        }
      ],
      "name": "login",
      "outputs": [
        {
          "internalType": "bool",
          "name": "",
          "type": "bool"
        }
      ],
      "stateMutability": "view",
      "type": "function",
      "constant": true
    }
  ],
  "bytecode": "0x608060405234801561001057600080fd5b5061056b806100206000396000f3fe608060405234801561001057600080fd5b50600436106100415760003560e01c80633ffbd47f1461004657806358467dbc14610062578063a87430ba14610092575b600080fd5b610060600480360381019061005b9190610333565b6100c2565b005b61007c60048036038101906100779190610333565b61013d565b60405161008991906103c6565b60405180910390f35b6100ac60048036038101906100a7919061043f565b6101c1565b6040516100b99190610485565b60405180910390f35b6000339050600083836040516020016100dc929190610511565b604051602081830303815290604052805190602001209050806000808473ffffffffffffffffffffffffffffffffffffffff1673ffffffffffffffffffffffffffffffffffffffff1681526020019081526020016000208190555050505050565b60008033905060008060008373ffffffffffffffffffffffffffffffffffffffff1673ffffffffffffffffffffffffffffffffffffffff1681526020019081526020016000205490506000858560405160200161019b929190610511565b604051602081830303815290604052805190602001209050808214935050505092915050565b60006020528060005260406000206000915090505481565b6000604051905090565b600080fd5b600080fd5b600080fd5b600080fd5b6000601f19601f8301169050919050565b7f4e487b7100000000000000000000000000000000000000000000000000000000600052604160045260246000fd5b610240826101f7565b810181811067ffffffffffffffff8211171561025f5761025e610208565b5b80604052505050565b60006102726101d9565b905061027e8282610237565b919050565b600067ffffffffffffffff82111561029e5761029d610208565b5b6102a7826101f7565b9050602081019050919050565b82818337600083830152505050565b60006102d66102d184610283565b610268565b9050828152602081018484840111156102f2576102f16101f2565b5b6102fd8482856102b4565b509392505050565b600082601f83011261031a576103196101ed565b5b813561032a8482602086016102c3565b91505092915050565b6000806040838503121561034a576103496101e3565b5b600083013567ffffffffffffffff811115610368576103676101e8565b5b61037485828601610305565b925050602083013567ffffffffffffffff811115610395576103946101e8565b5b6103a185828601610305565b9150509250929050565b60008115159050919050565b6103c0816103ab565b82525050565b60006020820190506103db60008301846103b7565b92915050565b600073ffffffffffffffffffffffffffffffffffffffff82169050919050565b600061040c826103e1565b9050919050565b61041c81610401565b811461042757600080fd5b50565b60008135905061043981610413565b92915050565b600060208284031215610455576104546101e3565b5b60006104638482850161042a565b91505092915050565b6000819050919050565b61047f8161046c565b82525050565b600060208201905061049a6000830184610476565b92915050565b600081519050919050565b600081905092915050565b60005b838110156104d45780820151818401526020810190506104b9565b60008484015250505050565b60006104eb826104a0565b6104f581856104ab565b93506105058185602086016104b6565b80840191505092915050565b600061051d82856104e0565b915061052982846104e0565b9150819050939250505056fea2646970667358221220e0215d8e06bc7d8252c78a11ae7fb3d849861802ecb38a806141cbc2ef0fd72264736f6c63430008130033",
  "immutableReferences": {},
  "source": "//SPDX-License-Identifier: UNLICENSED\r\n//one change for new branch\r\npragma solidity >=0.6.0 < 0.9.0;\r\n\r\n// ----------------------------------CONTRACT #5-----------------------------//\r\n\r\ncontract BackerLogin {\r\n\r\n    struct User {\r\n        address uaddress;\r\n        string email;\r\n        string passwordHash;\r\n    }\r\n\r\n    mapping (address => bytes32) public users;\r\n\r\n\r\n    function register(string memory _email, string memory _password) public {\r\n\r\n        address user = msg.sender;\r\n        bytes32 hash = keccak256(abi.encodePacked(_email, _password));\r\n        users[user] = hash;\r\n\r\n    }\r\n\r\n    function login(string memory _email, string memory _password) public view returns (bool) {\r\n\r\n        address user = msg.sender;\r\n        bytes32 storedHash = users[user];\r\n        bytes32 hash = keccak256(abi.encodePacked(_email, _password));\r\n        return (storedHash == hash);\r\n\r\n    }\r\n\r\n}\r\n\r\n\r\n",
  "sourcePath": "D:\\BE\\be project\\Crowdfunding-System-using-Blockchain\\contracts\\BackerLogin.sol",
  "compiler": {
    "name": "solc",
    "version": "0.8.19+commit.7dd6d404.Emscripten.clang"
  },
  "schemaVersion": "3.4.13",
  "updatedAt": "2023-05-29T10:17:43.534Z",
  "networkType": "ethereum",
  "devdoc": {
    "kind": "dev",
    "methods": {},
    "version": 1
  },
  "userdoc": {
    "kind": "user",
    "methods": {},
    "version": 1
  }
}