{
  "contractName": "funding",
  "abi": [
    {
      "inputs": [
        {
          "internalType": "address payable",
          "name": "_admin",
          "type": "address"
        }
      ],
      "stateMutability": "nonpayable",
      "type": "constructor"
    },
    {
      "inputs": [],
      "name": "admin",
      "outputs": [
        {
          "internalType": "address payable",
          "name": "",
          "type": "address"
        }
      ],
      "stateMutability": "view",
      "type": "function",
      "constant": true
    },
    {
      "inputs": [
        {
          "internalType": "address",
          "name": "",
          "type": "address"
        }
      ],
      "name": "contributors",
      "outputs": [
        {
          "internalType": "uint256",
          "name": "",
          "type": "uint256"
        }
      ],
      "stateMutability": "view",
      "type": "function",
      "constant": true
    },
    {
      "inputs": [],
      "name": "fundingGoal",
      "outputs": [
        {
          "internalType": "uint256",
          "name": "",
          "type": "uint256"
        }
      ],
      "stateMutability": "view",
      "type": "function",
      "constant": true
    },
    {
      "inputs": [],
      "name": "goalReached",
      "outputs": [
        {
          "internalType": "bool",
          "name": "",
          "type": "bool"
        }
      ],
      "stateMutability": "view",
      "type": "function",
      "constant": true
    },
    {
      "inputs": [],
      "name": "projectOwner",
      "outputs": [
        {
          "internalType": "address payable",
          "name": "",
          "type": "address"
        }
      ],
      "stateMutability": "view",
      "type": "function",
      "constant": true
    },
    {
      "inputs": [],
      "name": "totalAmountRaised",
      "outputs": [
        {
          "internalType": "uint256",
          "name": "",
          "type": "uint256"
        }
      ],
      "stateMutability": "view",
      "type": "function",
      "constant": true
    },
    {
      "inputs": [
        {
          "internalType": "uint256",
          "name": "weiAmount",
          "type": "uint256"
        }
      ],
      "name": "weiToEther",
      "outputs": [
        {
          "internalType": "uint256",
          "name": "",
          "type": "uint256"
        }
      ],
      "stateMutability": "pure",
      "type": "function",
      "constant": true
    },
    {
      "inputs": [
        {
          "internalType": "uint256",
          "name": "_projectId",
          "type": "uint256"
        }
      ],
      "name": "contribute",
      "outputs": [],
      "stateMutability": "payable",
      "type": "function",
      "payable": true
    },
    {
      "inputs": [
        {
          "internalType": "uint256",
          "name": "_projectId",
          "type": "uint256"
        }
      ],
      "name": "getProjectName",
      "outputs": [
        {
          "internalType": "string",
          "name": "",
          "type": "string"
        }
      ],
      "stateMutability": "view",
      "type": "function",
      "constant": true
    },
    {
      "inputs": [
        {
          "internalType": "uint256",
          "name": "_projectId",
          "type": "uint256"
        }
      ],
      "name": "getProjectAmountRaised",
      "outputs": [
        {
          "internalType": "uint256",
          "name": "",
          "type": "uint256"
        }
      ],
      "stateMutability": "view",
      "type": "function",
      "constant": true
    },
    {
      "inputs": [
        {
          "internalType": "uint256",
          "name": "_projectId",
          "type": "uint256"
        }
      ],
      "name": "getToRaised",
      "outputs": [
        {
          "internalType": "uint256",
          "name": "",
          "type": "uint256"
        }
      ],
      "stateMutability": "view",
      "type": "function",
      "constant": true
    },
    {
      "inputs": [
        {
          "internalType": "uint256",
          "name": "_projectId",
          "type": "uint256"
        }
      ],
      "name": "isGoalReached",
      "outputs": [
        {
          "internalType": "bool",
          "name": "",
          "type": "bool"
        }
      ],
      "stateMutability": "view",
      "type": "function",
      "constant": true
    },
    {
      "inputs": [
        {
          "internalType": "uint256",
          "name": "_projectId",
          "type": "uint256"
        }
      ],
      "name": "withdraw",
      "outputs": [],
      "stateMutability": "payable",
      "type": "function",
      "payable": true
    },
    {
      "inputs": [],
      "name": "refund",
      "outputs": [],
      "stateMutability": "nonpayable",
      "type": "function"
    }
  ],
  "bytecode": "0x60806040523480156200001157600080fd5b506040516200183c3803806200183c83398181016040528101906200003791906200013d565b7373e55ee03c09905d5c4b5285783db517b9e381556000806101000a81548173ffffffffffffffffffffffffffffffffffffffff021916908373ffffffffffffffffffffffffffffffffffffffff16021790555080600560016101000a81548173ffffffffffffffffffffffffffffffffffffffff021916908373ffffffffffffffffffffffffffffffffffffffff160217905550506200016f565b600080fd5b600073ffffffffffffffffffffffffffffffffffffffff82169050919050565b60006200010582620000d8565b9050919050565b6200011781620000f8565b81146200012357600080fd5b50565b60008151905062000137816200010c565b92915050565b600060208284031215620001565762000155620000d3565b5b6000620001668482850162000126565b91505092915050565b6116bd806200017f6000396000f3fe6080604052600436106100dd5760003560e01c80637d3d65221161007f578063d0eff89111610059578063d0eff89114610294578063f19603aa146102d1578063f1fa906c1461030e578063f851a4401461034b576100dd565b80637d3d652214610222578063a4475ce41461024d578063c1cbbca714610278576100dd565b806332535f38116100bb57806332535f3814610166578063520ac64e146101a3578063590e1ae3146101e05780637a3a0e84146101f7576100dd565b80631f6d4942146100e2578063242d7dba1461011f5780632e1a7d4d1461014a575b600080fd5b3480156100ee57600080fd5b5061010960048036038101906101049190610ceb565b610376565b6040516101169190610d31565b60405180910390f35b34801561012b57600080fd5b5061013461038e565b6040516101419190610d31565b60405180910390f35b610164600480360381019061015f9190610d78565b610394565b005b34801561017257600080fd5b5061018d60048036038101906101889190610d78565b61054c565b60405161019a9190610d31565b60405180910390f35b3480156101af57600080fd5b506101ca60048036038101906101c59190610d78565b6105f9565b6040516101d79190610d31565b60405180910390f35b3480156101ec57600080fd5b506101f56106a6565b005b34801561020357600080fd5b5061020c610814565b6040516102199190610d31565b60405180910390f35b34801561022e57600080fd5b5061023761081a565b6040516102449190610dc0565b60405180910390f35b34801561025957600080fd5b5061026261082d565b60405161026f9190610dfc565b60405180910390f35b610292600480360381019061028d9190610d78565b610853565b005b3480156102a057600080fd5b506102bb60048036038101906102b69190610d78565b610adc565b6040516102c89190610d31565b60405180910390f35b3480156102dd57600080fd5b506102f860048036038101906102f39190610d78565b610af9565b6040516103059190610dc0565b60405180910390f35b34801561031a57600080fd5b5061033560048036038101906103309190610d78565b610ba7565b6040516103429190610ea7565b60405180910390f35b34801561035757600080fd5b50610360610c53565b60405161036d9190610dfc565b60405180910390f35b60046020528060005260406000206000915090505481565b60035481565b61039d81610af9565b6103dc576040517f08c379a00000000000000000000000000000000000000000000000000000000081526004016103d390610f15565b60405180910390fd5b600560019054906101000a900473ffffffffffffffffffffffffffffffffffffffff1673ffffffffffffffffffffffffffffffffffffffff163373ffffffffffffffffffffffffffffffffffffffff161461046c576040517f08c379a000000000000000000000000000000000000000000000000000000000815260040161046390610f81565b60405180910390fd5b6000610477826105f9565b905060008054906101000a900473ffffffffffffffffffffffffffffffffffffffff1673ffffffffffffffffffffffffffffffffffffffff166392256aec836040518263ffffffff1660e01b81526004016104d29190610d31565b602060405180830381865afa1580156104ef573d6000803e3d6000fd5b505050506040513d601f19601f820116820180604052508101906105139190610fb6565b73ffffffffffffffffffffffffffffffffffffffff166108fc829081150290604051600060405180830381858888f19350505050505050565b60008060009054906101000a900473ffffffffffffffffffffffffffffffffffffffff1673ffffffffffffffffffffffffffffffffffffffff1663f0f3f2c8836040518263ffffffff1660e01b81526004016105a89190610d31565b600060405180830381865afa1580156105c5573d6000803e3d6000fd5b505050506040513d6000823e3d601f19601f820116820180604052508101906105ee91906113c2565b608001519050919050565b60008060009054906101000a900473ffffffffffffffffffffffffffffffffffffffff1673ffffffffffffffffffffffffffffffffffffffff1663f0f3f2c8836040518263ffffffff1660e01b81526004016106559190610d31565b600060405180830381865afa158015610672573d6000803e3d6000fd5b505050506040513d6000823e3d601f19601f8201168201806040525081019061069b91906113c2565b60a001519050919050565b6000600460003373ffffffffffffffffffffffffffffffffffffffff1673ffffffffffffffffffffffffffffffffffffffff1681526020019081526020016000205411610728576040517f08c379a000000000000000000000000000000000000000000000000000000000815260040161071f9061147d565b60405180910390fd5b6000600460003373ffffffffffffffffffffffffffffffffffffffff1673ffffffffffffffffffffffffffffffffffffffff1681526020019081526020016000205490506000600460003373ffffffffffffffffffffffffffffffffffffffff1673ffffffffffffffffffffffffffffffffffffffff1681526020019081526020016000208190555080600360008282546107c391906114cc565b925050819055503373ffffffffffffffffffffffffffffffffffffffff166108fc829081150290604051600060405180830381858888f19350505050158015610810573d6000803e3d6000fd5b5050565b60025481565b600560009054906101000a900460ff1681565b600160009054906101000a900473ffffffffffffffffffffffffffffffffffffffff1681565b60003411610896576040517f08c379a000000000000000000000000000000000000000000000000000000000815260040161088d90611572565b60405180910390fd5b61089f81610af9565b156108df576040517f08c379a00000000000000000000000000000000000000000000000000000000081526004016108d6906115de565b60405180910390fd5b60006108ea826105f9565b6108f38361054c565b6108fd91906114cc565b9050600061090a34610adc565b905081811115610918578190505b60008054906101000a900473ffffffffffffffffffffffffffffffffffffffff1673ffffffffffffffffffffffffffffffffffffffff16638563308784836040518363ffffffff1660e01b81526004016109739291906115fe565b600060405180830381600087803b15801561098d57600080fd5b505af11580156109a1573d6000803e3d6000fd5b505050506109ae8361054c565b6002819055506109bd836105f9565b60038190555060025460035410610a7f57600160008054906101000a900473ffffffffffffffffffffffffffffffffffffffff1673ffffffffffffffffffffffffffffffffffffffff1663f0f3f2c8856040518263ffffffff1660e01b8152600401610a299190610d31565b600060405180830381865afa158015610a46573d6000803e3d6000fd5b505050506040513d6000823e3d601f19601f82011682018060405250810190610a6f91906113c2565b6101000190151590811515815250505b600560019054906101000a900473ffffffffffffffffffffffffffffffffffffffff1673ffffffffffffffffffffffffffffffffffffffff166108fc829081150290604051600060405180830381858888f1935050505050505050565b6000670de0b6b3a764000082610af29190611656565b9050919050565b60008060009054906101000a900473ffffffffffffffffffffffffffffffffffffffff1673ffffffffffffffffffffffffffffffffffffffff1663f0f3f2c8836040518263ffffffff1660e01b8152600401610b559190610d31565b600060405180830381865afa158015610b72573d6000803e3d6000fd5b505050506040513d6000823e3d601f19601f82011682018060405250810190610b9b91906113c2565b61010001519050919050565b606060008054906101000a900473ffffffffffffffffffffffffffffffffffffffff1673ffffffffffffffffffffffffffffffffffffffff1663f0f3f2c8836040518263ffffffff1660e01b8152600401610c029190610d31565b600060405180830381865afa158015610c1f573d6000803e3d6000fd5b505050506040513d6000823e3d601f19601f82011682018060405250810190610c4891906113c2565b600001519050919050565b600560019054906101000a900473ffffffffffffffffffffffffffffffffffffffff1681565b6000604051905090565b600080fd5b600080fd5b600073ffffffffffffffffffffffffffffffffffffffff82169050919050565b6000610cb882610c8d565b9050919050565b610cc881610cad565b8114610cd357600080fd5b50565b600081359050610ce581610cbf565b92915050565b600060208284031215610d0157610d00610c83565b5b6000610d0f84828501610cd6565b91505092915050565b6000819050919050565b610d2b81610d18565b82525050565b6000602082019050610d466000830184610d22565b92915050565b610d5581610d18565b8114610d6057600080fd5b50565b600081359050610d7281610d4c565b92915050565b600060208284031215610d8e57610d8d610c83565b5b6000610d9c84828501610d63565b91505092915050565b60008115159050919050565b610dba81610da5565b82525050565b6000602082019050610dd56000830184610db1565b92915050565b6000610de682610c8d565b9050919050565b610df681610ddb565b82525050565b6000602082019050610e116000830184610ded565b92915050565b600081519050919050565b600082825260208201905092915050565b60005b83811015610e51578082015181840152602081019050610e36565b60008484015250505050565b6000601f19601f8301169050919050565b6000610e7982610e17565b610e838185610e22565b9350610e93818560208601610e33565b610e9c81610e5d565b840191505092915050565b60006020820190508181036000830152610ec18184610e6e565b905092915050565b7f46756e64696e6720676f616c206e6f7420726561636865640000000000000000600082015250565b6000610eff601883610e22565b9150610f0a82610ec9565b602082019050919050565b60006020820190508181036000830152610f2e81610ef2565b9050919050565b7f4f6e6c792061646d696e2063616e2077697468647261772066756e6473000000600082015250565b6000610f6b601d83610e22565b9150610f7682610f35565b602082019050919050565b60006020820190508181036000830152610f9a81610f5e565b9050919050565b600081519050610fb081610cbf565b92915050565b600060208284031215610fcc57610fcb610c83565b5b6000610fda84828501610fa1565b91505092915050565b600080fd5b7f4e487b7100000000000000000000000000000000000000000000000000000000600052604160045260246000fd5b61102082610e5d565b810181811067ffffffffffffffff8211171561103f5761103e610fe8565b5b80604052505050565b6000611052610c79565b905061105e8282611017565b919050565b600080fd5b600080fd5b600080fd5b600067ffffffffffffffff82111561108d5761108c610fe8565b5b61109682610e5d565b9050602081019050919050565b60006110b66110b184611072565b611048565b9050828152602081018484840111156110d2576110d161106d565b5b6110dd848285610e33565b509392505050565b600082601f8301126110fa576110f9611068565b5b815161110a8482602086016110a3565b91505092915050565b60008151905061112281610d4c565b92915050565b600067ffffffffffffffff82111561114357611142610fe8565b5b602082029050602081019050919050565b600080fd5b600061116c61116784611128565b611048565b9050808382526020820190506020840283018581111561118f5761118e611154565b5b835b818110156111d657805167ffffffffffffffff8111156111b4576111b3611068565b5b8086016111c189826110e5565b85526020850194505050602081019050611191565b5050509392505050565b600082601f8301126111f5576111f4611068565b5b8151611205848260208601611159565b91505092915050565b61121781610da5565b811461122257600080fd5b50565b6000815190506112348161120e565b92915050565b6000610120828403121561125157611250610fe3565b5b61125c610120611048565b9050600082015167ffffffffffffffff81111561127c5761127b611063565b5b611288848285016110e5565b600083015250602082015167ffffffffffffffff8111156112ac576112ab611063565b5b6112b8848285016110e5565b602083015250604082015167ffffffffffffffff8111156112dc576112db611063565b5b6112e8848285016110e5565b604083015250606082015167ffffffffffffffff81111561130c5761130b611063565b5b611318848285016110e5565b606083015250608061132c84828501611113565b60808301525060a061134084828501611113565b60a08301525060c082015167ffffffffffffffff81111561136457611363611063565b5b611370848285016111e0565b60c08301525060e082015167ffffffffffffffff81111561139457611393611063565b5b6113a0848285016110e5565b60e0830152506101006113b584828501611225565b6101008301525092915050565b6000602082840312156113d8576113d7610c83565b5b600082015167ffffffffffffffff8111156113f6576113f5610c88565b5b6114028482850161123a565b91505092915050565b7f4e6f20636f6e747269627574696f6e20666f756e6420666f722074686973206160008201527f6464726573730000000000000000000000000000000000000000000000000000602082015250565b6000611467602683610e22565b91506114728261140b565b604082019050919050565b600060208201905081810360008301526114968161145a565b9050919050565b7f4e487b7100000000000000000000000000000000000000000000000000000000600052601160045260246000fd5b60006114d782610d18565b91506114e283610d18565b92508282039050818111156114fa576114f961149d565b5b92915050565b7f436f6e747269627574696f6e20616d6f756e74206d757374206265206772656160008201527f746572207468616e203000000000000000000000000000000000000000000000602082015250565b600061155c602a83610e22565b915061156782611500565b604082019050919050565b6000602082019050818103600083015261158b8161154f565b9050919050565b7f46756e64696e6720676f616c20616c7265616479207265616368656400000000600082015250565b60006115c8601c83610e22565b91506115d382611592565b602082019050919050565b600060208201905081810360008301526115f7816115bb565b9050919050565b60006040820190506116136000830185610d22565b6116206020830184610d22565b9392505050565b7f4e487b7100000000000000000000000000000000000000000000000000000000600052601260045260246000fd5b600061166182610d18565b915061166c83610d18565b92508261167c5761167b611627565b5b82820490509291505056fea2646970667358221220afc8722966a1424558b45c736a1ed26e53b5832ab51c20609c41ec11a094dff364736f6c63430008130033",
  "immutableReferences": {},
  "source": "//SPDX-License-Identifier: UNLICENSED\npragma solidity >=0.6.0 < 0.9.0;\n\n//---------------------------------CONTRACT #1-------------------------------------//\n// contract funding{\n//     mapping(address=>uint) public contributors; //contributors[msg.sender]=100\n//     address public manager; \n//     uint public minimumContribution;\n//     uint public deadline;\n//     uint public target;\n//     uint public raisedAmount;\n//     uint public noOfContributors;\n    \n//     struct Request{\n//         string description;\n//         address payable recipient;\n//         uint value;\n//         bool completed;\n//         uint noOfVoters;\n//         mapping(address=>bool) voters;\n//     }\n\n//     mapping(uint=>Request) public requests;\n//     uint public numRequests;\n\n//     constructor (uint _target,uint _deadline){\n//         target=_target;\n//         deadline=block.timestamp+_deadline; //10sec + 3600sec (60*60)\n//         minimumContribution=100 wei;\n//         manager=msg.sender;\n//     }\n    \n// // Donor functions\n// // 1. Donate Money\n//     function sendEth() public payable{\n//         require(block.timestamp < deadline,\"Deadline has passed\");\n//         require(msg.value >=minimumContribution,\"Minimum Contribution is not met\");\n        \n//         if(contributors[msg.sender]==0){\n//             noOfContributors++;\n//         }\n//         contributors[msg.sender]+=msg.value;\n//         raisedAmount+=msg.value;\n//     }\n//     function getContractBalance() public view returns(uint){\n//         return address(this).balance;\n//     }\n\n// // 2. Request refund\n//     function refund() public payable{\n//         // require(block.timestamp>deadline && raisedAmount<target,\"You are not eligible for refund\");\n//         require(contributors[msg.sender]>0);\n//         address payable user= payable(msg.sender);\n//         user.transfer(contributors[msg.sender]);\n//         raisedAmount -= contributors[msg.sender];\n//         noOfContributors--;\n//         contributors[msg.sender]=0;\n        \n//     }\n\n// // 3. To get votes from existing contributors to allocate the new project\n//     function voteRequest(uint _requestNo) public{\n//         require(contributors[msg.sender]>0,\"You must be contributor\");\n//         Request storage thisRequest=requests[_requestNo];\n//         require(thisRequest.voters[msg.sender]==false,\"You have already voted\");\n//         thisRequest.voters[msg.sender]=true;\n//         thisRequest.noOfVoters++;\n//     }\n\n// // modifier to check if the function is accessed by the manager(as some functions cannot be accessed by anybody else)\n//     modifier onlyManager(){\n//         require(msg.sender == manager,\"Only manager can call this function\");\n//         _;\n//     }\n\n// // Manager(Admin) Functions\n// // 1. To create new Project allocations\n//     function createRequests(string memory _description,address payable _recipient,uint _value)public onlyManager{\n//         Request storage newRequest = requests[numRequests];\n//         numRequests++;\n//         newRequest.description=_description;\n//         newRequest.recipient=_recipient;\n//         newRequest.value=_value;\n//         newRequest.completed=false;\n//         newRequest.noOfVoters=0;\n//     }\n\n\n// }\n\n\n//---------------------------------CONTRACT #2-------------------------------------//\n// contract funding {\n    \n//     // Project struct to store project details\n//     struct Project {\n//         address owner;\n//         string title;\n//         string description;\n//         uint goal;\n//         uint raised;\n//         bool completed;\n//         mapping(address => uint) contributions;\n//     }\n    \n//     // Array of projects\n//     Project[] public projects;\n    \n//     // Event emitted when a new project is created\n//     // event ProjectCreated(uint projectId, address owner, string title, string description, uint goal);\n    \n//     // Event emitted when a project is funded\n//     event ProjectFunded(uint projectId, address funder, uint amount);\n    \n    \n//     // Function to fund a project\n//     function fundProject(uint _projectId) public payable {\n//         Project storage project = projects[_projectId];\n//         require(msg.value > 0, \"Amount should be greater than 0\");\n//         require(!project.completed, \"Project is already completed\");\n//         require(project.raised < project.goal, \"Project goal is already reached\");\n//         project.contributions[msg.sender] += msg.value;\n//         project.raised += msg.value;\n//         emit ProjectFunded(_projectId, msg.sender, msg.value);\n//     }\n    \n//     // Function to check the contribution of a funder for a project\n//     function checkContribution(uint _projectId) public view returns(uint) {\n//         return projects[_projectId].contributions[msg.sender];\n//     }\n    \n//     // Function to check the status of a project\n//     function checkProjectStatus(uint _projectId) public view returns(bool) {\n//         return projects[_projectId].completed;\n//     }\n    \n//     // Function to complete a project and transfer funds to owner\n//     function completeProject(uint _projectId) public {\n//         Project storage project = projects[_projectId];\n//         require(!project.completed, \"Project is already completed\");\n//         require(project.raised >= project.goal, \"Project goal is not reached\");\n//         project.completed = true;\n//         payable(project.owner).transfer(project.raised);\n//     }\n// }\n\n\n\n//---------------------------------CONTRACT #3-------------------------------------//\n// import \"./ProjectDetails.sol\";\n\n// contract funding {\n\n//     // Project Contract\n//     ProjectDetails projectDetails;\n\n//     address payable public projectOwner;\n//     uint public fundingGoal;\n//     uint public totalAmountRaised;\n//     mapping(address => uint) public contributors;\n//     bool public goalReached;\n\n//     address public admin;\n\n//     // constructor(address payable _projectOwner, uint _fundingGoal, address _admin) {\n//     //     projectOwner = _projectOwner;\n//     //     fundingGoal = _fundingGoal;\n//     //     admin = _admin;\n//     // }\n\n//     constructor() {\n//         projectDetails = ProjectDetails(0x00Ec53B0d9D1725C90D0b740c7ABA9cb277a23dc);\n//         // admin = _admin;\n//     }\n\n\n//     function contribute(uint256 _projectId) public payable {\n//         require(msg.value > 0, \"Contribution amount must be greater than 0\");\n//         require(msg.value < projectDetails.getProject(_projectId).amountToRaise, \"Funding goal already reached\");\n//         projectDetails.getProject(_projectId).amountRaised += msg.value;\n//         contributors[msg.sender] += msg.value;\n//         totalAmountRaised += msg.value;\n//         payable(projectDetails.getProjectOwner(_projectId)).transfer(msg.value);\n//     }\n\n//     function withdraw() public {\n//         require(goalReached, \"Funding goal not reached\");\n//         require(msg.sender == projectOwner, \"Only project owner can withdraw funds\");\n//         payable(msg.sender).transfer(address(this).balance);\n//     }\n\n//     function checkGoalReached() public {\n//         if (totalAmountRaised >= fundingGoal) {\n//             goalReached = true;\n//         }\n//     }\n\n//     function refund() public {\n//         require(contributors[msg.sender] > 0, \"No contribution found for this address\");\n//         uint amount = contributors[msg.sender];\n//         contributors[msg.sender] = 0;\n//         totalAmountRaised -= amount;\n//         payable(msg.sender).transfer(amount);\n//     }\n// }\n\n\n//---------------------------------CONTRACT #4-------------------------------------//\nimport \"./ProjectDetails.sol\";\n\ncontract funding {\n\n    // Project Contract\n    ProjectDetails projectDetails;\n\n    address payable public projectOwner;\n    uint public fundingGoal;\n    uint public totalAmountRaised;\n    mapping(address => uint) public contributors;\n    bool public goalReached;\n\n    address payable public admin;\n\n    constructor(address payable _admin) {\n        projectDetails = ProjectDetails(0x73e55eE03C09905D5C4B5285783Db517B9E38155);\n        admin = _admin;\n    }\n\n    function weiToEther(uint256 weiAmount) public pure returns (uint256) {\n        return weiAmount / 1 ether;\n    }\n\n\n\n    function contribute(uint256 _projectId) public payable {\n        require(msg.value > 0, \"Contribution amount must be greater than 0\");\n        require(!isGoalReached(_projectId), \"Funding goal already reached\");\n\n        uint256 remainingAmount = getToRaised(_projectId) - getProjectAmountRaised(_projectId);\n        uint256 etherAmount = weiToEther(msg.value);\n\n        // CHANGES        \n        if (etherAmount > remainingAmount) {\n            etherAmount = remainingAmount;\n        }                        \n        // if (etherAmount >= remainingAmount) {\n        //     // Adjust the contribution amount to the remaining amount required to reach the funding goal\n        //     payable(projectDetails.getProjectOwner(_projectId)).transfer(etherAmount - remainingAmount);\n        //     projectDetails.addAmountRaised(_projectId, remainingAmount);\n        // } else {\n        //     projectDetails.addAmountRaised(_projectId, etherAmount);\n        //     payable(projectDetails.getProjectOwner(_projectId)).transfer(etherAmount);\n        // }\n\n        projectDetails.addAmountRaised(_projectId, etherAmount);\n        fundingGoal = getToRaised(_projectId);\n        totalAmountRaised = getProjectAmountRaised(_projectId);\n        if(totalAmountRaised >= fundingGoal){\n            projectDetails.getProject(_projectId).goalReached = true;\n        }\n\n        admin.send(etherAmount);\n        \n        \n    }\n\n    // remix\n    function getProjectName(uint256 _projectId) public view returns (string memory) {\n        return projectDetails.getProject(_projectId).title;\n    }\n\n    // remix\n    function getProjectAmountRaised(uint256 _projectId) public view returns (uint256) {\n        return projectDetails.getProject(_projectId).amountRaised;\n    }\n\n    function getToRaised(uint256 _projectId) public view returns (uint256) {\n        return projectDetails.getProject(_projectId).amountToRaise;\n    }\n\n    function isGoalReached(uint256 _projectId) public view returns (bool) {\n        return projectDetails.getProject(_projectId).goalReached;\n    }\n\n    function withdraw(uint256 _projectId) public payable{\n        require(isGoalReached(_projectId), \"Funding goal not reached\");\n        require(msg.sender == admin, \"Only admin can withdraw funds\");\n        // add all the required require conditions\n\n        uint256 etherAmount = getProjectAmountRaised(_projectId);\n        payable(projectDetails.getProjectOwner(_projectId)).send(etherAmount);\n    }\n\n    // function checkGoalReached() public {\n    //     if (totalAmountRaised >= fundingGoal) {\n    //         goalReached = true;\n    //     }\n    // }\n\n    function refund() public {\n        require(contributors[msg.sender] > 0, \"No contribution found for this address\");\n        uint amount = contributors[msg.sender];\n        contributors[msg.sender] = 0;\n        totalAmountRaised -= amount;\n        payable(msg.sender).transfer(amount);\n    }\n}\n\n",
  "sourcePath": "/home/mypc/Documents/mypc/Personal/B.E./uBE/Mega Project/Implementation/v 2.0/contracts/funding.sol",
  "compiler": {
    "name": "solc",
    "version": "0.8.19+commit.7dd6d404.Emscripten.clang"
  },
  "schemaVersion": "3.4.13",
  "updatedAt": "2023-05-28T12:59:24.330Z",
  "networkType": "ethereum",
  "devdoc": {
    "kind": "dev",
    "methods": {},
    "version": 1
  },
  "userdoc": {
    "kind": "user",
    "methods": {},
    "version": 1
  }
}