{
  "contractName": "funding",
  "abi": [
    {
      "inputs": [
        {
          "internalType": "address payable",
          "name": "_admin",
          "type": "address"
        },
        {
          "internalType": "address",
          "name": "_projectDetailsAddress",
          "type": "address"
        }
      ],
      "stateMutability": "nonpayable",
      "type": "constructor"
    },
    {
      "inputs": [],
      "name": "admin",
      "outputs": [
        {
          "internalType": "address payable",
          "name": "",
          "type": "address"
        }
      ],
      "stateMutability": "view",
      "type": "function",
      "constant": true
    },
    {
      "inputs": [
        {
          "internalType": "address",
          "name": "",
          "type": "address"
        }
      ],
      "name": "contributors",
      "outputs": [
        {
          "internalType": "uint256",
          "name": "",
          "type": "uint256"
        }
      ],
      "stateMutability": "view",
      "type": "function",
      "constant": true
    },
    {
      "inputs": [],
      "name": "fundingGoal",
      "outputs": [
        {
          "internalType": "uint256",
          "name": "",
          "type": "uint256"
        }
      ],
      "stateMutability": "view",
      "type": "function",
      "constant": true
    },
    {
      "inputs": [],
      "name": "goalReached",
      "outputs": [
        {
          "internalType": "bool",
          "name": "",
          "type": "bool"
        }
      ],
      "stateMutability": "view",
      "type": "function",
      "constant": true
    },
    {
      "inputs": [],
      "name": "projectOwner",
      "outputs": [
        {
          "internalType": "address payable",
          "name": "",
          "type": "address"
        }
      ],
      "stateMutability": "view",
      "type": "function",
      "constant": true
    },
    {
      "inputs": [],
      "name": "totalAmountRaised",
      "outputs": [
        {
          "internalType": "uint256",
          "name": "",
          "type": "uint256"
        }
      ],
      "stateMutability": "view",
      "type": "function",
      "constant": true
    },
    {
      "inputs": [
        {
          "internalType": "uint256",
          "name": "weiAmount",
          "type": "uint256"
        }
      ],
      "name": "weiToEther",
      "outputs": [
        {
          "internalType": "uint256",
          "name": "",
          "type": "uint256"
        }
      ],
      "stateMutability": "pure",
      "type": "function",
      "constant": true
    },
    {
      "inputs": [
        {
          "internalType": "uint256",
          "name": "_projectId",
          "type": "uint256"
        }
      ],
      "name": "contribute",
      "outputs": [],
      "stateMutability": "payable",
      "type": "function",
      "payable": true
    },
    {
      "inputs": [
        {
          "internalType": "uint256",
          "name": "_projectId",
          "type": "uint256"
        }
      ],
      "name": "getProjectName",
      "outputs": [
        {
          "internalType": "string",
          "name": "",
          "type": "string"
        }
      ],
      "stateMutability": "view",
      "type": "function",
      "constant": true
    },
    {
      "inputs": [
        {
          "internalType": "uint256",
          "name": "_projectId",
          "type": "uint256"
        }
      ],
      "name": "getProjectAmountRaised",
      "outputs": [
        {
          "internalType": "uint256",
          "name": "",
          "type": "uint256"
        }
      ],
      "stateMutability": "view",
      "type": "function",
      "constant": true
    },
    {
      "inputs": [
        {
          "internalType": "uint256",
          "name": "_projectId",
          "type": "uint256"
        }
      ],
      "name": "getToRaised",
      "outputs": [
        {
          "internalType": "uint256",
          "name": "",
          "type": "uint256"
        }
      ],
      "stateMutability": "view",
      "type": "function",
      "constant": true
    },
    {
      "inputs": [
        {
          "internalType": "uint256",
          "name": "_projectId",
          "type": "uint256"
        }
      ],
      "name": "isGoalReached",
      "outputs": [
        {
          "internalType": "bool",
          "name": "",
          "type": "bool"
        }
      ],
      "stateMutability": "view",
      "type": "function",
      "constant": true
    },
    {
      "inputs": [
        {
          "internalType": "uint256",
          "name": "_projectId",
          "type": "uint256"
        }
      ],
      "name": "withdraw",
      "outputs": [],
      "stateMutability": "payable",
      "type": "function",
      "payable": true
    },
    {
      "inputs": [],
      "name": "refund",
      "outputs": [],
      "stateMutability": "nonpayable",
      "type": "function"
    }
  ],
  "bytecode": "0x60806040523480156200001157600080fd5b50604051620017f1380380620017f183398181016040528101906200003791906200016f565b806000806101000a81548173ffffffffffffffffffffffffffffffffffffffff021916908373ffffffffffffffffffffffffffffffffffffffff16021790555081600560016101000a81548173ffffffffffffffffffffffffffffffffffffffff021916908373ffffffffffffffffffffffffffffffffffffffff1602179055505050620001b6565b600080fd5b600073ffffffffffffffffffffffffffffffffffffffff82169050919050565b6000620000f282620000c5565b9050919050565b6200010481620000e5565b81146200011057600080fd5b50565b6000815190506200012481620000f9565b92915050565b60006200013782620000c5565b9050919050565b62000149816200012a565b81146200015557600080fd5b50565b60008151905062000169816200013e565b92915050565b60008060408385031215620001895762000188620000c0565b5b6000620001998582860162000113565b9250506020620001ac8582860162000158565b9150509250929050565b61162b80620001c66000396000f3fe6080604052600436106100dd5760003560e01c80637d3d65221161007f578063d0eff89111610059578063d0eff89114610294578063f19603aa146102d1578063f1fa906c1461030e578063f851a4401461034b576100dd565b80637d3d652214610222578063a4475ce41461024d578063c1cbbca714610278576100dd565b806332535f38116100bb57806332535f3814610166578063520ac64e146101a3578063590e1ae3146101e05780637a3a0e84146101f7576100dd565b80631f6d4942146100e2578063242d7dba1461011f5780632e1a7d4d1461014a575b600080fd5b3480156100ee57600080fd5b5061010960048036038101906101049190610cc5565b610376565b6040516101169190610d0b565b60405180910390f35b34801561012b57600080fd5b5061013461038e565b6040516101419190610d0b565b60405180910390f35b610164600480360381019061015f9190610d52565b610394565b005b34801561017257600080fd5b5061018d60048036038101906101889190610d52565b610515565b60405161019a9190610d0b565b60405180910390f35b3480156101af57600080fd5b506101ca60048036038101906101c59190610d52565b6105c2565b6040516101d79190610d0b565b60405180910390f35b3480156101ec57600080fd5b506101f561066f565b005b34801561020357600080fd5b5061020c6107dd565b6040516102199190610d0b565b60405180910390f35b34801561022e57600080fd5b506102376107e3565b6040516102449190610d9a565b60405180910390f35b34801561025957600080fd5b506102626107f6565b60405161026f9190610dd6565b60405180910390f35b610292600480360381019061028d9190610d52565b61081c565b005b3480156102a057600080fd5b506102bb60048036038101906102b69190610d52565b610ab6565b6040516102c89190610d0b565b60405180910390f35b3480156102dd57600080fd5b506102f860048036038101906102f39190610d52565b610ad3565b6040516103059190610d9a565b60405180910390f35b34801561031a57600080fd5b5061033560048036038101906103309190610d52565b610b81565b6040516103429190610e81565b60405180910390f35b34801561035757600080fd5b50610360610c2d565b60405161036d9190610dd6565b60405180910390f35b60046020528060005260406000206000915090505481565b60035481565b600560019054906101000a900473ffffffffffffffffffffffffffffffffffffffff1673ffffffffffffffffffffffffffffffffffffffff163373ffffffffffffffffffffffffffffffffffffffff1614610424576040517f08c379a000000000000000000000000000000000000000000000000000000000815260040161041b90610eef565b60405180910390fd5b600061042f826105c2565b905060008054906101000a900473ffffffffffffffffffffffffffffffffffffffff1673ffffffffffffffffffffffffffffffffffffffff166392256aec836040518263ffffffff1660e01b815260040161048a9190610d0b565b602060405180830381865afa1580156104a7573d6000803e3d6000fd5b505050506040513d601f19601f820116820180604052508101906104cb9190610f24565b73ffffffffffffffffffffffffffffffffffffffff166108fc829081150290604051600060405180830381858888f19350505050158015610510573d6000803e3d6000fd5b505050565b60008060009054906101000a900473ffffffffffffffffffffffffffffffffffffffff1673ffffffffffffffffffffffffffffffffffffffff1663f0f3f2c8836040518263ffffffff1660e01b81526004016105719190610d0b565b600060405180830381865afa15801561058e573d6000803e3d6000fd5b505050506040513d6000823e3d601f19601f820116820180604052508101906105b79190611330565b608001519050919050565b60008060009054906101000a900473ffffffffffffffffffffffffffffffffffffffff1673ffffffffffffffffffffffffffffffffffffffff1663f0f3f2c8836040518263ffffffff1660e01b815260040161061e9190610d0b565b600060405180830381865afa15801561063b573d6000803e3d6000fd5b505050506040513d6000823e3d601f19601f820116820180604052508101906106649190611330565b60a001519050919050565b6000600460003373ffffffffffffffffffffffffffffffffffffffff1673ffffffffffffffffffffffffffffffffffffffff16815260200190815260200160002054116106f1576040517f08c379a00000000000000000000000000000000000000000000000000000000081526004016106e8906113eb565b60405180910390fd5b6000600460003373ffffffffffffffffffffffffffffffffffffffff1673ffffffffffffffffffffffffffffffffffffffff1681526020019081526020016000205490506000600460003373ffffffffffffffffffffffffffffffffffffffff1673ffffffffffffffffffffffffffffffffffffffff16815260200190815260200160002081905550806003600082825461078c919061143a565b925050819055503373ffffffffffffffffffffffffffffffffffffffff166108fc829081150290604051600060405180830381858888f193505050501580156107d9573d6000803e3d6000fd5b5050565b60025481565b600560009054906101000a900460ff1681565b600160009054906101000a900473ffffffffffffffffffffffffffffffffffffffff1681565b6000341161085f576040517f08c379a0000000000000000000000000000000000000000000000000000000008152600401610856906114e0565b60405180910390fd5b61086881610ad3565b156108a8576040517f08c379a000000000000000000000000000000000000000000000000000000000815260040161089f9061154c565b60405180910390fd5b60006108b3826105c2565b6108bc83610515565b6108c6919061143a565b905060006108d334610ab6565b9050818111156108e1578190505b60008054906101000a900473ffffffffffffffffffffffffffffffffffffffff1673ffffffffffffffffffffffffffffffffffffffff16638563308784836040518363ffffffff1660e01b815260040161093c92919061156c565b600060405180830381600087803b15801561095657600080fd5b505af115801561096a573d6000803e3d6000fd5b5050505061097783610515565b600281905550610986836105c2565b60038190555060025460035410610a4857600160008054906101000a900473ffffffffffffffffffffffffffffffffffffffff1673ffffffffffffffffffffffffffffffffffffffff1663f0f3f2c8856040518263ffffffff1660e01b81526004016109f29190610d0b565b600060405180830381865afa158015610a0f573d6000803e3d6000fd5b505050506040513d6000823e3d601f19601f82011682018060405250810190610a389190611330565b6101000190151590811515815250505b600560019054906101000a900473ffffffffffffffffffffffffffffffffffffffff1673ffffffffffffffffffffffffffffffffffffffff166108fc829081150290604051600060405180830381858888f19350505050158015610ab0573d6000803e3d6000fd5b50505050565b6000670de0b6b3a764000082610acc91906115c4565b9050919050565b60008060009054906101000a900473ffffffffffffffffffffffffffffffffffffffff1673ffffffffffffffffffffffffffffffffffffffff1663f0f3f2c8836040518263ffffffff1660e01b8152600401610b2f9190610d0b565b600060405180830381865afa158015610b4c573d6000803e3d6000fd5b505050506040513d6000823e3d601f19601f82011682018060405250810190610b759190611330565b61010001519050919050565b606060008054906101000a900473ffffffffffffffffffffffffffffffffffffffff1673ffffffffffffffffffffffffffffffffffffffff1663f0f3f2c8836040518263ffffffff1660e01b8152600401610bdc9190610d0b565b600060405180830381865afa158015610bf9573d6000803e3d6000fd5b505050506040513d6000823e3d601f19601f82011682018060405250810190610c229190611330565b600001519050919050565b600560019054906101000a900473ffffffffffffffffffffffffffffffffffffffff1681565b6000604051905090565b600080fd5b600080fd5b600073ffffffffffffffffffffffffffffffffffffffff82169050919050565b6000610c9282610c67565b9050919050565b610ca281610c87565b8114610cad57600080fd5b50565b600081359050610cbf81610c99565b92915050565b600060208284031215610cdb57610cda610c5d565b5b6000610ce984828501610cb0565b91505092915050565b6000819050919050565b610d0581610cf2565b82525050565b6000602082019050610d206000830184610cfc565b92915050565b610d2f81610cf2565b8114610d3a57600080fd5b50565b600081359050610d4c81610d26565b92915050565b600060208284031215610d6857610d67610c5d565b5b6000610d7684828501610d3d565b91505092915050565b60008115159050919050565b610d9481610d7f565b82525050565b6000602082019050610daf6000830184610d8b565b92915050565b6000610dc082610c67565b9050919050565b610dd081610db5565b82525050565b6000602082019050610deb6000830184610dc7565b92915050565b600081519050919050565b600082825260208201905092915050565b60005b83811015610e2b578082015181840152602081019050610e10565b60008484015250505050565b6000601f19601f8301169050919050565b6000610e5382610df1565b610e5d8185610dfc565b9350610e6d818560208601610e0d565b610e7681610e37565b840191505092915050565b60006020820190508181036000830152610e9b8184610e48565b905092915050565b7f4f6e6c792061646d696e2063616e2077697468647261772066756e6473000000600082015250565b6000610ed9601d83610dfc565b9150610ee482610ea3565b602082019050919050565b60006020820190508181036000830152610f0881610ecc565b9050919050565b600081519050610f1e81610c99565b92915050565b600060208284031215610f3a57610f39610c5d565b5b6000610f4884828501610f0f565b91505092915050565b600080fd5b7f4e487b7100000000000000000000000000000000000000000000000000000000600052604160045260246000fd5b610f8e82610e37565b810181811067ffffffffffffffff82111715610fad57610fac610f56565b5b80604052505050565b6000610fc0610c53565b9050610fcc8282610f85565b919050565b600080fd5b600080fd5b600080fd5b600067ffffffffffffffff821115610ffb57610ffa610f56565b5b61100482610e37565b9050602081019050919050565b600061102461101f84610fe0565b610fb6565b9050828152602081018484840111156110405761103f610fdb565b5b61104b848285610e0d565b509392505050565b600082601f83011261106857611067610fd6565b5b8151611078848260208601611011565b91505092915050565b60008151905061109081610d26565b92915050565b600067ffffffffffffffff8211156110b1576110b0610f56565b5b602082029050602081019050919050565b600080fd5b60006110da6110d584611096565b610fb6565b905080838252602082019050602084028301858111156110fd576110fc6110c2565b5b835b8181101561114457805167ffffffffffffffff81111561112257611121610fd6565b5b80860161112f8982611053565b855260208501945050506020810190506110ff565b5050509392505050565b600082601f83011261116357611162610fd6565b5b81516111738482602086016110c7565b91505092915050565b61118581610d7f565b811461119057600080fd5b50565b6000815190506111a28161117c565b92915050565b600061012082840312156111bf576111be610f51565b5b6111ca610120610fb6565b9050600082015167ffffffffffffffff8111156111ea576111e9610fd1565b5b6111f684828501611053565b600083015250602082015167ffffffffffffffff81111561121a57611219610fd1565b5b61122684828501611053565b602083015250604082015167ffffffffffffffff81111561124a57611249610fd1565b5b61125684828501611053565b604083015250606082015167ffffffffffffffff81111561127a57611279610fd1565b5b61128684828501611053565b606083015250608061129a84828501611081565b60808301525060a06112ae84828501611081565b60a08301525060c082015167ffffffffffffffff8111156112d2576112d1610fd1565b5b6112de8482850161114e565b60c08301525060e082015167ffffffffffffffff81111561130257611301610fd1565b5b61130e84828501611053565b60e08301525061010061132384828501611193565b6101008301525092915050565b60006020828403121561134657611345610c5d565b5b600082015167ffffffffffffffff81111561136457611363610c62565b5b611370848285016111a8565b91505092915050565b7f4e6f20636f6e747269627574696f6e20666f756e6420666f722074686973206160008201527f6464726573730000000000000000000000000000000000000000000000000000602082015250565b60006113d5602683610dfc565b91506113e082611379565b604082019050919050565b60006020820190508181036000830152611404816113c8565b9050919050565b7f4e487b7100000000000000000000000000000000000000000000000000000000600052601160045260246000fd5b600061144582610cf2565b915061145083610cf2565b92508282039050818111156114685761146761140b565b5b92915050565b7f436f6e747269627574696f6e20616d6f756e74206d757374206265206772656160008201527f746572207468616e203000000000000000000000000000000000000000000000602082015250565b60006114ca602a83610dfc565b91506114d58261146e565b604082019050919050565b600060208201905081810360008301526114f9816114bd565b9050919050565b7f46756e64696e6720676f616c20616c7265616479207265616368656400000000600082015250565b6000611536601c83610dfc565b915061154182611500565b602082019050919050565b6000602082019050818103600083015261156581611529565b9050919050565b60006040820190506115816000830185610cfc565b61158e6020830184610cfc565b9392505050565b7f4e487b7100000000000000000000000000000000000000000000000000000000600052601260045260246000fd5b60006115cf82610cf2565b91506115da83610cf2565b9250826115ea576115e9611595565b5b82820490509291505056fea26469706673582212202e58713bd567aca847c4d5e7afa3153c86a1ef77a8375ec5592c921cb52ab28d64736f6c63430008130033",
  "immutableReferences": {},
  "source": "//SPDX-License-Identifier: UNLICENSED\npragma solidity >=0.6.0 < 0.9.0;\n\n//---------------------------------CONTRACT #1-------------------------------------//\n// contract funding{\n//     mapping(address=>uint) public contributors; //contributors[msg.sender]=100\n//     address public manager; \n//     uint public minimumContribution;\n//     uint public deadline;\n//     uint public target;\n//     uint public raisedAmount;\n//     uint public noOfContributors;\n    \n//     struct Request{\n//         string description;\n//         address payable recipient;\n//         uint value;\n//         bool completed;\n//         uint noOfVoters;\n//         mapping(address=>bool) voters;\n//     }\n\n//     mapping(uint=>Request) public requests;\n//     uint public numRequests;\n\n//     constructor (uint _target,uint _deadline){\n//         target=_target;\n//         deadline=block.timestamp+_deadline; //10sec + 3600sec (60*60)\n//         minimumContribution=100 wei;\n//         manager=msg.sender;\n//     }\n    \n// // Donor functions\n// // 1. Donate Money\n//     function sendEth() public payable{\n//         require(block.timestamp < deadline,\"Deadline has passed\");\n//         require(msg.value >=minimumContribution,\"Minimum Contribution is not met\");\n        \n//         if(contributors[msg.sender]==0){\n//             noOfContributors++;\n//         }\n//         contributors[msg.sender]+=msg.value;\n//         raisedAmount+=msg.value;\n//     }\n//     function getContractBalance() public view returns(uint){\n//         return address(this).balance;\n//     }\n\n// // 2. Request refund\n//     function refund() public payable{\n//         // require(block.timestamp>deadline && raisedAmount<target,\"You are not eligible for refund\");\n//         require(contributors[msg.sender]>0);\n//         address payable user= payable(msg.sender);\n//         user.transfer(contributors[msg.sender]);\n//         raisedAmount -= contributors[msg.sender];\n//         noOfContributors--;\n//         contributors[msg.sender]=0;\n        \n//     }\n\n// // 3. To get votes from existing contributors to allocate the new project\n//     function voteRequest(uint _requestNo) public{\n//         require(contributors[msg.sender]>0,\"You must be contributor\");\n//         Request storage thisRequest=requests[_requestNo];\n//         require(thisRequest.voters[msg.sender]==false,\"You have already voted\");\n//         thisRequest.voters[msg.sender]=true;\n//         thisRequest.noOfVoters++;\n//     }\n\n// // modifier to check if the function is accessed by the manager(as some functions cannot be accessed by anybody else)\n//     modifier onlyManager(){\n//         require(msg.sender == manager,\"Only manager can call this function\");\n//         _;\n//     }\n\n// // Manager(Admin) Functions\n// // 1. To create new Project allocations\n//     function createRequests(string memory _description,address payable _recipient,uint _value)public onlyManager{\n//         Request storage newRequest = requests[numRequests];\n//         numRequests++;\n//         newRequest.description=_description;\n//         newRequest.recipient=_recipient;\n//         newRequest.value=_value;\n//         newRequest.completed=false;\n//         newRequest.noOfVoters=0;\n//     }\n\n\n// }\n\n\n//---------------------------------CONTRACT #2-------------------------------------//\n// contract funding {\n    \n//     // Project struct to store project details\n//     struct Project {\n//         address owner;\n//         string title;\n//         string description;\n//         uint goal;\n//         uint raised;\n//         bool completed;\n//         mapping(address => uint) contributions;\n//     }\n    \n//     // Array of projects\n//     Project[] public projects;\n    \n//     // Event emitted when a new project is created\n//     // event ProjectCreated(uint projectId, address owner, string title, string description, uint goal);\n    \n//     // Event emitted when a project is funded\n//     event ProjectFunded(uint projectId, address funder, uint amount);\n    \n    \n//     // Function to fund a project\n//     function fundProject(uint _projectId) public payable {\n//         Project storage project = projects[_projectId];\n//         require(msg.value > 0, \"Amount should be greater than 0\");\n//         require(!project.completed, \"Project is already completed\");\n//         require(project.raised < project.goal, \"Project goal is already reached\");\n//         project.contributions[msg.sender] += msg.value;\n//         project.raised += msg.value;\n//         emit ProjectFunded(_projectId, msg.sender, msg.value);\n//     }\n    \n//     // Function to check the contribution of a funder for a project\n//     function checkContribution(uint _projectId) public view returns(uint) {\n//         return projects[_projectId].contributions[msg.sender];\n//     }\n    \n//     // Function to check the status of a project\n//     function checkProjectStatus(uint _projectId) public view returns(bool) {\n//         return projects[_projectId].completed;\n//     }\n    \n//     // Function to complete a project and transfer funds to owner\n//     function completeProject(uint _projectId) public {\n//         Project storage project = projects[_projectId];\n//         require(!project.completed, \"Project is already completed\");\n//         require(project.raised >= project.goal, \"Project goal is not reached\");\n//         project.completed = true;\n//         payable(project.owner).transfer(project.raised);\n//     }\n// }\n\n\n\n//---------------------------------CONTRACT #3-------------------------------------//\n// import \"./ProjectDetails.sol\";\n\n// contract funding {\n\n//     // Project Contract\n//     ProjectDetails projectDetails;\n\n//     address payable public projectOwner;\n//     uint public fundingGoal;\n//     uint public totalAmountRaised;\n//     mapping(address => uint) public contributors;\n//     bool public goalReached;\n\n//     address public admin;\n\n//     // constructor(address payable _projectOwner, uint _fundingGoal, address _admin) {\n//     //     projectOwner = _projectOwner;\n//     //     fundingGoal = _fundingGoal;\n//     //     admin = _admin;\n//     // }\n\n//     constructor() {\n//         projectDetails = ProjectDetails(0x00Ec53B0d9D1725C90D0b740c7ABA9cb277a23dc);\n//         // admin = _admin;\n//     }\n\n\n//     function contribute(uint256 _projectId) public payable {\n//         require(msg.value > 0, \"Contribution amount must be greater than 0\");\n//         require(msg.value < projectDetails.getProject(_projectId).amountToRaise, \"Funding goal already reached\");\n//         projectDetails.getProject(_projectId).amountRaised += msg.value;\n//         contributors[msg.sender] += msg.value;\n//         totalAmountRaised += msg.value;\n//         payable(projectDetails.getProjectOwner(_projectId)).transfer(msg.value);\n//     }\n\n//     function withdraw() public {\n//         require(goalReached, \"Funding goal not reached\");\n//         require(msg.sender == projectOwner, \"Only project owner can withdraw funds\");\n//         payable(msg.sender).transfer(address(this).balance);\n//     }\n\n//     function checkGoalReached() public {\n//         if (totalAmountRaised >= fundingGoal) {\n//             goalReached = true;\n//         }\n//     }\n\n//     function refund() public {\n//         require(contributors[msg.sender] > 0, \"No contribution found for this address\");\n//         uint amount = contributors[msg.sender];\n//         contributors[msg.sender] = 0;\n//         totalAmountRaised -= amount;\n//         payable(msg.sender).transfer(amount);\n//     }\n// }\n\n\n//---------------------------------CONTRACT #4-------------------------------------//\nimport \"./ProjectDetails.sol\";\n\ncontract funding {\n\n    // Project Contract\n    ProjectDetails projectDetails;\n\n    address payable public projectOwner;\n    uint public fundingGoal;\n    uint public totalAmountRaised;\n    mapping(address => uint) public contributors;\n    bool public goalReached;\n\n    address payable public admin;\n\n    constructor(address payable _admin, address _projectDetailsAddress) {\n        projectDetails = ProjectDetails(_projectDetailsAddress);\n        admin = _admin;\n    }\n\n    function weiToEther(uint256 weiAmount) public pure returns (uint256) {\n        return weiAmount / 1 ether;\n    }\n\n\n\n    function contribute(uint256 _projectId) public payable {\n        require(msg.value > 0, \"Contribution amount must be greater than 0\");\n        require(!isGoalReached(_projectId), \"Funding goal already reached\");\n\n        uint256 remainingAmount = getToRaised(_projectId) - getProjectAmountRaised(_projectId);\n        uint256 etherAmount = weiToEther(msg.value);\n\n        // CHANGES        \n        if (etherAmount > remainingAmount) {\n            etherAmount = remainingAmount;\n        }                        \n        // if (etherAmount >= remainingAmount) {\n        //     // Adjust the contribution amount to the remaining amount required to reach the funding goal\n        //     payable(projectDetails.getProjectOwner(_projectId)).transfer(etherAmount - remainingAmount);\n        //     projectDetails.addAmountRaised(_projectId, remainingAmount);\n        // } else {\n        //     projectDetails.addAmountRaised(_projectId, etherAmount);\n        //     payable(projectDetails.getProjectOwner(_projectId)).transfer(etherAmount);\n        // }\n\n        projectDetails.addAmountRaised(_projectId, etherAmount);\n        fundingGoal = getToRaised(_projectId);\n        totalAmountRaised = getProjectAmountRaised(_projectId);\n        if(totalAmountRaised >= fundingGoal){\n            projectDetails.getProject(_projectId).goalReached = true;\n        }\n\n        admin.transfer(etherAmount);\n        \n        \n    }\n\n    // remix\n    function getProjectName(uint256 _projectId) public view returns (string memory) {\n        return projectDetails.getProject(_projectId).title;\n    }\n\n    // remix\n    function getProjectAmountRaised(uint256 _projectId) public view returns (uint256) {\n        return projectDetails.getProject(_projectId).amountRaised;\n    }\n\n    function getToRaised(uint256 _projectId) public view returns (uint256) {\n        return projectDetails.getProject(_projectId).amountToRaise;\n    }\n\n    function isGoalReached(uint256 _projectId) public view returns (bool) {\n        return projectDetails.getProject(_projectId).goalReached;\n    }\n\n    function withdraw(uint256 _projectId) public payable{\n        // require(isGoalReached(_projectId), \"Funding goal not reached\");\n        require(msg.sender == admin, \"Only admin can withdraw funds\");\n        // add all the required require conditions\n\n        uint256 etherAmount = getProjectAmountRaised(_projectId);\n        payable(projectDetails.getProjectOwner(_projectId)).transfer(etherAmount);\n    }\n\n    // function checkGoalReached() public {\n    //     if (totalAmountRaised >= fundingGoal) {\n    //         goalReached = true;\n    //     }\n    // }\n\n    function refund() public {\n        require(contributors[msg.sender] > 0, \"No contribution found for this address\");\n        uint amount = contributors[msg.sender];\n        contributors[msg.sender] = 0;\n        totalAmountRaised -= amount;\n        payable(msg.sender).transfer(amount);\n    }\n}\n\n",
  "sourcePath": "/home/mypc/Documents/mypc/Personal/B.E./uBE/Mega Project/Implementation/v 2.0/contracts/funding.sol",
  "compiler": {
    "name": "solc",
    "version": "0.8.19+commit.7dd6d404.Emscripten.clang"
  },
  "schemaVersion": "3.4.13",
  "updatedAt": "2023-05-30T20:15:00.858Z",
  "networkType": "ethereum",
  "devdoc": {
    "kind": "dev",
    "methods": {},
    "version": 1
  },
  "userdoc": {
    "kind": "user",
    "methods": {},
    "version": 1
  }
}