{
  "contractName": "funding",
  "abi": [
    {
      "inputs": [],
      "stateMutability": "nonpayable",
      "type": "constructor"
    },
    {
      "inputs": [],
      "name": "admin",
      "outputs": [
        {
          "internalType": "address",
          "name": "",
          "type": "address"
        }
      ],
      "stateMutability": "view",
      "type": "function",
      "constant": true
    },
    {
      "inputs": [
        {
          "internalType": "address",
          "name": "",
          "type": "address"
        }
      ],
      "name": "contributors",
      "outputs": [
        {
          "internalType": "uint256",
          "name": "",
          "type": "uint256"
        }
      ],
      "stateMutability": "view",
      "type": "function",
      "constant": true
    },
    {
      "inputs": [],
      "name": "fundingGoal",
      "outputs": [
        {
          "internalType": "uint256",
          "name": "",
          "type": "uint256"
        }
      ],
      "stateMutability": "view",
      "type": "function",
      "constant": true
    },
    {
      "inputs": [],
      "name": "goalReached",
      "outputs": [
        {
          "internalType": "bool",
          "name": "",
          "type": "bool"
        }
      ],
      "stateMutability": "view",
      "type": "function",
      "constant": true
    },
    {
      "inputs": [],
      "name": "projectOwner",
      "outputs": [
        {
          "internalType": "address payable",
          "name": "",
          "type": "address"
        }
      ],
      "stateMutability": "view",
      "type": "function",
      "constant": true
    },
    {
      "inputs": [],
      "name": "totalAmountRaised",
      "outputs": [
        {
          "internalType": "uint256",
          "name": "",
          "type": "uint256"
        }
      ],
      "stateMutability": "view",
      "type": "function",
      "constant": true
    },
    {
      "inputs": [
        {
          "internalType": "uint256",
          "name": "_projectId",
          "type": "uint256"
        }
      ],
      "name": "contribute",
      "outputs": [],
      "stateMutability": "payable",
      "type": "function",
      "payable": true
    },
    {
      "inputs": [
        {
          "internalType": "uint256",
          "name": "_projectId",
          "type": "uint256"
        }
      ],
      "name": "getProjectName",
      "outputs": [
        {
          "internalType": "string",
          "name": "",
          "type": "string"
        }
      ],
      "stateMutability": "view",
      "type": "function",
      "constant": true
    },
    {
      "inputs": [
        {
          "internalType": "uint256",
          "name": "_projectId",
          "type": "uint256"
        }
      ],
      "name": "getProjectAmountRaised",
      "outputs": [
        {
          "internalType": "uint256",
          "name": "",
          "type": "uint256"
        }
      ],
      "stateMutability": "view",
      "type": "function",
      "constant": true
    },
    {
      "inputs": [
        {
          "internalType": "uint256",
          "name": "_projectId",
          "type": "uint256"
        }
      ],
      "name": "getToRaised",
      "outputs": [
        {
          "internalType": "uint256",
          "name": "",
          "type": "uint256"
        }
      ],
      "stateMutability": "view",
      "type": "function",
      "constant": true
    },
    {
      "inputs": [],
      "name": "withdraw",
      "outputs": [],
      "stateMutability": "nonpayable",
      "type": "function"
    },
    {
      "inputs": [],
      "name": "checkGoalReached",
      "outputs": [],
      "stateMutability": "nonpayable",
      "type": "function"
    },
    {
      "inputs": [],
      "name": "refund",
      "outputs": [],
      "stateMutability": "nonpayable",
      "type": "function"
    }
  ],
  "bytecode": "0x608060405234801561001057600080fd5b5073ac59667e090c5f2e69e5b1f2fe05423d825f67a26000806101000a81548173ffffffffffffffffffffffffffffffffffffffff021916908373ffffffffffffffffffffffffffffffffffffffff160217905550611520806100746000396000f3fe6080604052600436106100c25760003560e01c8063590e1ae31161007f578063a4475ce411610059578063a4475ce414610244578063c1cbbca71461026f578063f1fa906c1461028b578063f851a440146102c8576100c2565b8063590e1ae3146101d75780637a3a0e84146101ee5780637d3d652214610219576100c2565b806301cb3b20146100c75780631f6d4942146100de578063242d7dba1461011b57806332535f38146101465780633ccfd60b14610183578063520ac64e1461019a575b600080fd5b3480156100d357600080fd5b506100dc6102f3565b005b3480156100ea57600080fd5b5061010560048036038101906101009190610c0c565b61031c565b6040516101129190610c52565b60405180910390f35b34801561012757600080fd5b50610130610334565b60405161013d9190610c52565b60405180910390f35b34801561015257600080fd5b5061016d60048036038101906101689190610c99565b61033a565b60405161017a9190610c52565b60405180910390f35b34801561018f57600080fd5b506101986103e7565b005b3480156101a657600080fd5b506101c160048036038101906101bc9190610c99565b61050f565b6040516101ce9190610c52565b60405180910390f35b3480156101e357600080fd5b506101ec6105bc565b005b3480156101fa57600080fd5b5061020361072a565b6040516102109190610c52565b60405180910390f35b34801561022557600080fd5b5061022e610730565b60405161023b9190610ce1565b60405180910390f35b34801561025057600080fd5b50610259610743565b6040516102669190610d1d565b60405180910390f35b61028960048036038101906102849190610c99565b610769565b005b34801561029757600080fd5b506102b260048036038101906102ad9190610c99565b610ac8565b6040516102bf9190610dc8565b60405180910390f35b3480156102d457600080fd5b506102dd610b74565b6040516102ea9190610df9565b60405180910390f35b6002546003541061031a576001600560006101000a81548160ff0219169083151502179055505b565b60046020528060005260406000206000915090505481565b60035481565b60008060009054906101000a900473ffffffffffffffffffffffffffffffffffffffff1673ffffffffffffffffffffffffffffffffffffffff1663f0f3f2c8836040518263ffffffff1660e01b81526004016103969190610c52565b600060405180830381865afa1580156103b3573d6000803e3d6000fd5b505050506040513d6000823e3d601f19601f820116820180604052508101906103dc91906111b1565b608001519050919050565b600560009054906101000a900460ff16610436576040517f08c379a000000000000000000000000000000000000000000000000000000000815260040161042d90611246565b60405180910390fd5b600160009054906101000a900473ffffffffffffffffffffffffffffffffffffffff1673ffffffffffffffffffffffffffffffffffffffff163373ffffffffffffffffffffffffffffffffffffffff16146104c6576040517f08c379a00000000000000000000000000000000000000000000000000000000081526004016104bd906112d8565b60405180910390fd5b3373ffffffffffffffffffffffffffffffffffffffff166108fc479081150290604051600060405180830381858888f1935050505015801561050c573d6000803e3d6000fd5b50565b60008060009054906101000a900473ffffffffffffffffffffffffffffffffffffffff1673ffffffffffffffffffffffffffffffffffffffff1663f0f3f2c8836040518263ffffffff1660e01b815260040161056b9190610c52565b600060405180830381865afa158015610588573d6000803e3d6000fd5b505050506040513d6000823e3d601f19601f820116820180604052508101906105b191906111b1565b60a001519050919050565b6000600460003373ffffffffffffffffffffffffffffffffffffffff1673ffffffffffffffffffffffffffffffffffffffff168152602001908152602001600020541161063e576040517f08c379a00000000000000000000000000000000000000000000000000000000081526004016106359061136a565b60405180910390fd5b6000600460003373ffffffffffffffffffffffffffffffffffffffff1673ffffffffffffffffffffffffffffffffffffffff1681526020019081526020016000205490506000600460003373ffffffffffffffffffffffffffffffffffffffff1673ffffffffffffffffffffffffffffffffffffffff1681526020019081526020016000208190555080600360008282546106d991906113b9565b925050819055503373ffffffffffffffffffffffffffffffffffffffff166108fc829081150290604051600060405180830381858888f19350505050158015610726573d6000803e3d6000fd5b5050565b60025481565b600560009054906101000a900460ff1681565b600160009054906101000a900473ffffffffffffffffffffffffffffffffffffffff1681565b600034116107ac576040517f08c379a00000000000000000000000000000000000000000000000000000000081526004016107a39061145f565b60405180910390fd5b60006107b78261050f565b6107c08361033a565b6107ca91906113b9565b905060003490508181106109555760008054906101000a900473ffffffffffffffffffffffffffffffffffffffff1673ffffffffffffffffffffffffffffffffffffffff166392256aec846040518263ffffffff1660e01b81526004016108319190610c52565b602060405180830381865afa15801561084e573d6000803e3d6000fd5b505050506040513d601f19601f820116820180604052508101906108729190611494565b73ffffffffffffffffffffffffffffffffffffffff166108fc838361089791906113b9565b9081150290604051600060405180830381858888f193505050501580156108c2573d6000803e3d6000fd5b5060008054906101000a900473ffffffffffffffffffffffffffffffffffffffff1673ffffffffffffffffffffffffffffffffffffffff16638563308784846040518363ffffffff1660e01b815260040161091e9291906114c1565b600060405180830381600087803b15801561093857600080fd5b505af115801561094c573d6000803e3d6000fd5b50505050610ac3565b60008054906101000a900473ffffffffffffffffffffffffffffffffffffffff1673ffffffffffffffffffffffffffffffffffffffff16638563308784836040518363ffffffff1660e01b81526004016109b09291906114c1565b600060405180830381600087803b1580156109ca57600080fd5b505af11580156109de573d6000803e3d6000fd5b5050505060008054906101000a900473ffffffffffffffffffffffffffffffffffffffff1673ffffffffffffffffffffffffffffffffffffffff166392256aec846040518263ffffffff1660e01b8152600401610a3b9190610c52565b602060405180830381865afa158015610a58573d6000803e3d6000fd5b505050506040513d601f19601f82011682018060405250810190610a7c9190611494565b73ffffffffffffffffffffffffffffffffffffffff166108fc829081150290604051600060405180830381858888f19350505050158015610ac1573d6000803e3d6000fd5b505b505050565b606060008054906101000a900473ffffffffffffffffffffffffffffffffffffffff1673ffffffffffffffffffffffffffffffffffffffff1663f0f3f2c8836040518263ffffffff1660e01b8152600401610b239190610c52565b600060405180830381865afa158015610b40573d6000803e3d6000fd5b505050506040513d6000823e3d601f19601f82011682018060405250810190610b6991906111b1565b600001519050919050565b600560019054906101000a900473ffffffffffffffffffffffffffffffffffffffff1681565b6000604051905090565b600080fd5b600080fd5b600073ffffffffffffffffffffffffffffffffffffffff82169050919050565b6000610bd982610bae565b9050919050565b610be981610bce565b8114610bf457600080fd5b50565b600081359050610c0681610be0565b92915050565b600060208284031215610c2257610c21610ba4565b5b6000610c3084828501610bf7565b91505092915050565b6000819050919050565b610c4c81610c39565b82525050565b6000602082019050610c676000830184610c43565b92915050565b610c7681610c39565b8114610c8157600080fd5b50565b600081359050610c9381610c6d565b92915050565b600060208284031215610caf57610cae610ba4565b5b6000610cbd84828501610c84565b91505092915050565b60008115159050919050565b610cdb81610cc6565b82525050565b6000602082019050610cf66000830184610cd2565b92915050565b6000610d0782610bae565b9050919050565b610d1781610cfc565b82525050565b6000602082019050610d326000830184610d0e565b92915050565b600081519050919050565b600082825260208201905092915050565b60005b83811015610d72578082015181840152602081019050610d57565b60008484015250505050565b6000601f19601f8301169050919050565b6000610d9a82610d38565b610da48185610d43565b9350610db4818560208601610d54565b610dbd81610d7e565b840191505092915050565b60006020820190508181036000830152610de28184610d8f565b905092915050565b610df381610bce565b82525050565b6000602082019050610e0e6000830184610dea565b92915050565b600080fd5b7f4e487b7100000000000000000000000000000000000000000000000000000000600052604160045260246000fd5b610e5182610d7e565b810181811067ffffffffffffffff82111715610e7057610e6f610e19565b5b80604052505050565b6000610e83610b9a565b9050610e8f8282610e48565b919050565b600080fd5b600080fd5b600080fd5b600067ffffffffffffffff821115610ebe57610ebd610e19565b5b610ec782610d7e565b9050602081019050919050565b6000610ee7610ee284610ea3565b610e79565b905082815260208101848484011115610f0357610f02610e9e565b5b610f0e848285610d54565b509392505050565b600082601f830112610f2b57610f2a610e99565b5b8151610f3b848260208601610ed4565b91505092915050565b600081519050610f5381610c6d565b92915050565b600067ffffffffffffffff821115610f7457610f73610e19565b5b602082029050602081019050919050565b600080fd5b6000610f9d610f9884610f59565b610e79565b90508083825260208201905060208402830185811115610fc057610fbf610f85565b5b835b8181101561100757805167ffffffffffffffff811115610fe557610fe4610e99565b5b808601610ff28982610f16565b85526020850194505050602081019050610fc2565b5050509392505050565b600082601f83011261102657611025610e99565b5b8151611036848260208601610f8a565b91505092915050565b6000610100828403121561105657611055610e14565b5b611061610100610e79565b9050600082015167ffffffffffffffff81111561108157611080610e94565b5b61108d84828501610f16565b600083015250602082015167ffffffffffffffff8111156110b1576110b0610e94565b5b6110bd84828501610f16565b602083015250604082015167ffffffffffffffff8111156110e1576110e0610e94565b5b6110ed84828501610f16565b604083015250606082015167ffffffffffffffff81111561111157611110610e94565b5b61111d84828501610f16565b606083015250608061113184828501610f44565b60808301525060a061114584828501610f44565b60a08301525060c082015167ffffffffffffffff81111561116957611168610e94565b5b61117584828501611011565b60c08301525060e082015167ffffffffffffffff81111561119957611198610e94565b5b6111a584828501610f16565b60e08301525092915050565b6000602082840312156111c7576111c6610ba4565b5b600082015167ffffffffffffffff8111156111e5576111e4610ba9565b5b6111f18482850161103f565b91505092915050565b7f46756e64696e6720676f616c206e6f7420726561636865640000000000000000600082015250565b6000611230601883610d43565b915061123b826111fa565b602082019050919050565b6000602082019050818103600083015261125f81611223565b9050919050565b7f4f6e6c792070726f6a656374206f776e65722063616e2077697468647261772060008201527f66756e6473000000000000000000000000000000000000000000000000000000602082015250565b60006112c2602583610d43565b91506112cd82611266565b604082019050919050565b600060208201905081810360008301526112f1816112b5565b9050919050565b7f4e6f20636f6e747269627574696f6e20666f756e6420666f722074686973206160008201527f6464726573730000000000000000000000000000000000000000000000000000602082015250565b6000611354602683610d43565b915061135f826112f8565b604082019050919050565b6000602082019050818103600083015261138381611347565b9050919050565b7f4e487b7100000000000000000000000000000000000000000000000000000000600052601160045260246000fd5b60006113c482610c39565b91506113cf83610c39565b92508282039050818111156113e7576113e661138a565b5b92915050565b7f436f6e747269627574696f6e20616d6f756e74206d757374206265206772656160008201527f746572207468616e203000000000000000000000000000000000000000000000602082015250565b6000611449602a83610d43565b9150611454826113ed565b604082019050919050565b600060208201905081810360008301526114788161143c565b9050919050565b60008151905061148e81610be0565b92915050565b6000602082840312156114aa576114a9610ba4565b5b60006114b88482850161147f565b91505092915050565b60006040820190506114d66000830185610c43565b6114e36020830184610c43565b939250505056fea26469706673582212209126576ebb5b949649873ca30909125bce551c90b7bc3dcff6ae4ecbd073183f64736f6c63430008130033",
  "immutableReferences": {},
  "source": "//SPDX-License-Identifier: UNLICENSED\npragma solidity >=0.6.0 < 0.9.0;\n\n//---------------------------------CONTRACT #1-------------------------------------//\n// contract funding{\n//     mapping(address=>uint) public contributors; //contributors[msg.sender]=100\n//     address public manager; \n//     uint public minimumContribution;\n//     uint public deadline;\n//     uint public target;\n//     uint public raisedAmount;\n//     uint public noOfContributors;\n    \n//     struct Request{\n//         string description;\n//         address payable recipient;\n//         uint value;\n//         bool completed;\n//         uint noOfVoters;\n//         mapping(address=>bool) voters;\n//     }\n\n//     mapping(uint=>Request) public requests;\n//     uint public numRequests;\n\n//     constructor (uint _target,uint _deadline){\n//         target=_target;\n//         deadline=block.timestamp+_deadline; //10sec + 3600sec (60*60)\n//         minimumContribution=100 wei;\n//         manager=msg.sender;\n//     }\n    \n// // Donor functions\n// // 1. Donate Money\n//     function sendEth() public payable{\n//         require(block.timestamp < deadline,\"Deadline has passed\");\n//         require(msg.value >=minimumContribution,\"Minimum Contribution is not met\");\n        \n//         if(contributors[msg.sender]==0){\n//             noOfContributors++;\n//         }\n//         contributors[msg.sender]+=msg.value;\n//         raisedAmount+=msg.value;\n//     }\n//     function getContractBalance() public view returns(uint){\n//         return address(this).balance;\n//     }\n\n// // 2. Request refund\n//     function refund() public payable{\n//         // require(block.timestamp>deadline && raisedAmount<target,\"You are not eligible for refund\");\n//         require(contributors[msg.sender]>0);\n//         address payable user= payable(msg.sender);\n//         user.transfer(contributors[msg.sender]);\n//         raisedAmount -= contributors[msg.sender];\n//         noOfContributors--;\n//         contributors[msg.sender]=0;\n        \n//     }\n\n// // 3. To get votes from existing contributors to allocate the new project\n//     function voteRequest(uint _requestNo) public{\n//         require(contributors[msg.sender]>0,\"You must be contributor\");\n//         Request storage thisRequest=requests[_requestNo];\n//         require(thisRequest.voters[msg.sender]==false,\"You have already voted\");\n//         thisRequest.voters[msg.sender]=true;\n//         thisRequest.noOfVoters++;\n//     }\n\n// // modifier to check if the function is accessed by the manager(as some functions cannot be accessed by anybody else)\n//     modifier onlyManager(){\n//         require(msg.sender == manager,\"Only manager can call this function\");\n//         _;\n//     }\n\n// // Manager(Admin) Functions\n// // 1. To create new Project allocations\n//     function createRequests(string memory _description,address payable _recipient,uint _value)public onlyManager{\n//         Request storage newRequest = requests[numRequests];\n//         numRequests++;\n//         newRequest.description=_description;\n//         newRequest.recipient=_recipient;\n//         newRequest.value=_value;\n//         newRequest.completed=false;\n//         newRequest.noOfVoters=0;\n//     }\n\n\n// }\n\n\n//---------------------------------CONTRACT #2-------------------------------------//\n// contract funding {\n    \n//     // Project struct to store project details\n//     struct Project {\n//         address owner;\n//         string title;\n//         string description;\n//         uint goal;\n//         uint raised;\n//         bool completed;\n//         mapping(address => uint) contributions;\n//     }\n    \n//     // Array of projects\n//     Project[] public projects;\n    \n//     // Event emitted when a new project is created\n//     // event ProjectCreated(uint projectId, address owner, string title, string description, uint goal);\n    \n//     // Event emitted when a project is funded\n//     event ProjectFunded(uint projectId, address funder, uint amount);\n    \n    \n//     // Function to fund a project\n//     function fundProject(uint _projectId) public payable {\n//         Project storage project = projects[_projectId];\n//         require(msg.value > 0, \"Amount should be greater than 0\");\n//         require(!project.completed, \"Project is already completed\");\n//         require(project.raised < project.goal, \"Project goal is already reached\");\n//         project.contributions[msg.sender] += msg.value;\n//         project.raised += msg.value;\n//         emit ProjectFunded(_projectId, msg.sender, msg.value);\n//     }\n    \n//     // Function to check the contribution of a funder for a project\n//     function checkContribution(uint _projectId) public view returns(uint) {\n//         return projects[_projectId].contributions[msg.sender];\n//     }\n    \n//     // Function to check the status of a project\n//     function checkProjectStatus(uint _projectId) public view returns(bool) {\n//         return projects[_projectId].completed;\n//     }\n    \n//     // Function to complete a project and transfer funds to owner\n//     function completeProject(uint _projectId) public {\n//         Project storage project = projects[_projectId];\n//         require(!project.completed, \"Project is already completed\");\n//         require(project.raised >= project.goal, \"Project goal is not reached\");\n//         project.completed = true;\n//         payable(project.owner).transfer(project.raised);\n//     }\n// }\n\n\n\n//---------------------------------CONTRACT #3-------------------------------------//\n// import \"./ProjectDetails.sol\";\n\n// contract funding {\n\n//     // Project Contract\n//     ProjectDetails projectDetails;\n\n//     address payable public projectOwner;\n//     uint public fundingGoal;\n//     uint public totalAmountRaised;\n//     mapping(address => uint) public contributors;\n//     bool public goalReached;\n\n//     address public admin;\n\n//     // constructor(address payable _projectOwner, uint _fundingGoal, address _admin) {\n//     //     projectOwner = _projectOwner;\n//     //     fundingGoal = _fundingGoal;\n//     //     admin = _admin;\n//     // }\n\n//     constructor() {\n//         projectDetails = ProjectDetails(0x00Ec53B0d9D1725C90D0b740c7ABA9cb277a23dc);\n//         // admin = _admin;\n//     }\n\n\n//     function contribute(uint256 _projectId) public payable {\n//         require(msg.value > 0, \"Contribution amount must be greater than 0\");\n//         require(msg.value < projectDetails.getProject(_projectId).amountToRaise, \"Funding goal already reached\");\n//         projectDetails.getProject(_projectId).amountRaised += msg.value;\n//         contributors[msg.sender] += msg.value;\n//         totalAmountRaised += msg.value;\n//         payable(projectDetails.getProjectOwner(_projectId)).transfer(msg.value);\n//     }\n\n//     function withdraw() public {\n//         require(goalReached, \"Funding goal not reached\");\n//         require(msg.sender == projectOwner, \"Only project owner can withdraw funds\");\n//         payable(msg.sender).transfer(address(this).balance);\n//     }\n\n//     function checkGoalReached() public {\n//         if (totalAmountRaised >= fundingGoal) {\n//             goalReached = true;\n//         }\n//     }\n\n//     function refund() public {\n//         require(contributors[msg.sender] > 0, \"No contribution found for this address\");\n//         uint amount = contributors[msg.sender];\n//         contributors[msg.sender] = 0;\n//         totalAmountRaised -= amount;\n//         payable(msg.sender).transfer(amount);\n//     }\n// }\n\n\n//---------------------------------CONTRACT #4-------------------------------------//\nimport \"./ProjectDetails.sol\";\n\ncontract funding {\n\n    // Project Contract\n    ProjectDetails projectDetails;\n\n    address payable public projectOwner;\n    uint public fundingGoal;\n    uint public totalAmountRaised;\n    mapping(address => uint) public contributors;\n    bool public goalReached;\n\n    address public admin;\n\n    constructor() {\n        projectDetails = ProjectDetails(0xAC59667E090C5f2e69E5B1F2Fe05423D825f67A2);\n        // admin = _admin;\n    }\n\n    // function weiToEther(uint256 weiAmount) public pure returns (uint256) {\n    //     return weiAmount / 1 ether;\n    // }\n\n\n\n    function contribute(uint256 _projectId) public payable {\n        require(msg.value > 0, \"Contribution amount must be greater than 0\");\n\n        uint256 remainingAmount = getToRaised(_projectId) - getProjectAmountRaised(_projectId);\n        uint256 etherAmount = msg.value;\n\n        // CHANGES                                \n        if (etherAmount >= remainingAmount) {\n            // Adjust the contribution amount to the remaining amount required to reach the funding goal\n            payable(projectDetails.getProjectOwner(_projectId)).transfer(etherAmount - remainingAmount);\n            projectDetails.addAmountRaised(_projectId, remainingAmount);\n        } else {\n            projectDetails.addAmountRaised(_projectId, etherAmount);\n            payable(projectDetails.getProjectOwner(_projectId)).transfer(etherAmount);\n        }\n        \n        \n    }\n\n    // remix\n    function getProjectName(uint256 _projectId) public view returns (string memory) {\n        return projectDetails.getProject(_projectId).title;\n    }\n\n    // remix\n    function getProjectAmountRaised(uint256 _projectId) public view returns (uint256) {\n        return projectDetails.getProject(_projectId).amountRaised;\n    }\n\n    function getToRaised(uint256 _projectId) public view returns (uint256) {\n        return projectDetails.getProject(_projectId).amountToRaise;\n    }\n\n    function withdraw() public {\n        require(goalReached, \"Funding goal not reached\");\n        require(msg.sender == projectOwner, \"Only project owner can withdraw funds\");\n        payable(msg.sender).transfer(address(this).balance);\n    }\n\n    function checkGoalReached() public {\n        if (totalAmountRaised >= fundingGoal) {\n            goalReached = true;\n        }\n    }\n\n    function refund() public {\n        require(contributors[msg.sender] > 0, \"No contribution found for this address\");\n        uint amount = contributors[msg.sender];\n        contributors[msg.sender] = 0;\n        totalAmountRaised -= amount;\n        payable(msg.sender).transfer(amount);\n    }\n}\n\n",
  "sourcePath": "/home/mypc/Documents/mypc/Personal/B.E./uBE/Mega Project/Implementation/v 2.0/contracts/funding.sol",
  "compiler": {
    "name": "solc",
    "version": "0.8.19+commit.7dd6d404.Emscripten.clang"
  },
  "schemaVersion": "3.4.13",
  "updatedAt": "2023-05-27T16:21:07.470Z",
  "networkType": "ethereum",
  "devdoc": {
    "kind": "dev",
    "methods": {},
    "version": 1
  },
  "userdoc": {
    "kind": "user",
    "methods": {},
    "version": 1
  }
}