{
  "contractName": "funding",
  "abi": [
    {
      "inputs": [],
      "stateMutability": "nonpayable",
      "type": "constructor"
    },
    {
      "inputs": [],
      "name": "admin",
      "outputs": [
        {
          "internalType": "address",
          "name": "",
          "type": "address"
        }
      ],
      "stateMutability": "view",
      "type": "function",
      "constant": true
    },
    {
      "inputs": [
        {
          "internalType": "address",
          "name": "",
          "type": "address"
        }
      ],
      "name": "contributors",
      "outputs": [
        {
          "internalType": "uint256",
          "name": "",
          "type": "uint256"
        }
      ],
      "stateMutability": "view",
      "type": "function",
      "constant": true
    },
    {
      "inputs": [],
      "name": "fundingGoal",
      "outputs": [
        {
          "internalType": "uint256",
          "name": "",
          "type": "uint256"
        }
      ],
      "stateMutability": "view",
      "type": "function",
      "constant": true
    },
    {
      "inputs": [],
      "name": "goalReached",
      "outputs": [
        {
          "internalType": "bool",
          "name": "",
          "type": "bool"
        }
      ],
      "stateMutability": "view",
      "type": "function",
      "constant": true
    },
    {
      "inputs": [],
      "name": "projectOwner",
      "outputs": [
        {
          "internalType": "address payable",
          "name": "",
          "type": "address"
        }
      ],
      "stateMutability": "view",
      "type": "function",
      "constant": true
    },
    {
      "inputs": [],
      "name": "totalAmountRaised",
      "outputs": [
        {
          "internalType": "uint256",
          "name": "",
          "type": "uint256"
        }
      ],
      "stateMutability": "view",
      "type": "function",
      "constant": true
    },
    {
      "inputs": [
        {
          "internalType": "uint256",
          "name": "_projectId",
          "type": "uint256"
        }
      ],
      "name": "contribute",
      "outputs": [],
      "stateMutability": "payable",
      "type": "function",
      "payable": true
    },
    {
      "inputs": [
        {
          "internalType": "uint256",
          "name": "_projectId",
          "type": "uint256"
        }
      ],
      "name": "getProjectName",
      "outputs": [
        {
          "internalType": "string",
          "name": "",
          "type": "string"
        }
      ],
      "stateMutability": "view",
      "type": "function",
      "constant": true
    },
    {
      "inputs": [
        {
          "internalType": "uint256",
          "name": "_projectId",
          "type": "uint256"
        }
      ],
      "name": "getProjectAmountRaised",
      "outputs": [
        {
          "internalType": "uint256",
          "name": "",
          "type": "uint256"
        }
      ],
      "stateMutability": "view",
      "type": "function",
      "constant": true
    },
    {
      "inputs": [
        {
          "internalType": "uint256",
          "name": "_projectId",
          "type": "uint256"
        }
      ],
      "name": "getToRaised",
      "outputs": [
        {
          "internalType": "uint256",
          "name": "",
          "type": "uint256"
        }
      ],
      "stateMutability": "view",
      "type": "function",
      "constant": true
    },
    {
      "inputs": [
        {
          "internalType": "uint256",
          "name": "_projectId",
          "type": "uint256"
        }
      ],
      "name": "withdraw",
      "outputs": [],
      "stateMutability": "nonpayable",
      "type": "function"
    },
    {
      "inputs": [],
      "name": "checkGoalReached",
      "outputs": [],
      "stateMutability": "nonpayable",
      "type": "function"
    },
    {
      "inputs": [],
      "name": "refund",
      "outputs": [],
      "stateMutability": "nonpayable",
      "type": "function"
    }
  ],
  "bytecode": "0x608060405234801561001057600080fd5b5073ac59667e090c5f2e69e5b1f2fe05423d825f67a26000806101000a81548173ffffffffffffffffffffffffffffffffffffffff021916908373ffffffffffffffffffffffffffffffffffffffff160217905550611696806100746000396000f3fe6080604052600436106100c25760003560e01c8063590e1ae31161007f578063a4475ce411610059578063a4475ce414610256578063c1cbbca714610281578063f1fa906c1461029d578063f851a440146102da576100c2565b8063590e1ae3146101e95780637a3a0e84146102005780637d3d65221461022b576100c2565b806301cb3b20146100c75780631f6d4942146100de578063242d7dba1461011b5780632e1a7d4d1461014657806332535f381461016f578063520ac64e146101ac575b600080fd5b3480156100d357600080fd5b506100dc610305565b005b3480156100ea57600080fd5b5061010560048036038101906101009190610d16565b61032e565b6040516101129190610d5c565b60405180910390f35b34801561012757600080fd5b50610130610346565b60405161013d9190610d5c565b60405180910390f35b34801561015257600080fd5b5061016d60048036038101906101689190610da3565b61034c565b005b34801561017b57600080fd5b5061019660048036038101906101919190610da3565b61051c565b6040516101a39190610d5c565b60405180910390f35b3480156101b857600080fd5b506101d360048036038101906101ce9190610da3565b6105c9565b6040516101e09190610d5c565b60405180910390f35b3480156101f557600080fd5b506101fe610676565b005b34801561020c57600080fd5b506102156107e4565b6040516102229190610d5c565b60405180910390f35b34801561023757600080fd5b506102406107ea565b60405161024d9190610deb565b60405180910390f35b34801561026257600080fd5b5061026b6107fd565b6040516102789190610e27565b60405180910390f35b61029b60048036038101906102969190610da3565b610823565b005b3480156102a957600080fd5b506102c460048036038101906102bf9190610da3565b610bd2565b6040516102d19190610ed2565b60405180910390f35b3480156102e657600080fd5b506102ef610c7e565b6040516102fc9190610f03565b60405180910390f35b6002546003541061032c576001600560006101000a81548160ff0219169083151502179055505b565b60046020528060005260406000206000915090505481565b60035481565b600560009054906101000a900460ff1661039b576040517f08c379a000000000000000000000000000000000000000000000000000000000815260040161039290610f6a565b60405180910390fd5b600160009054906101000a900473ffffffffffffffffffffffffffffffffffffffff1673ffffffffffffffffffffffffffffffffffffffff163373ffffffffffffffffffffffffffffffffffffffff161461042b576040517f08c379a000000000000000000000000000000000000000000000000000000000815260040161042290610ffc565b60405180910390fd5b6000610436826105c9565b905060008054906101000a900473ffffffffffffffffffffffffffffffffffffffff1673ffffffffffffffffffffffffffffffffffffffff166392256aec836040518263ffffffff1660e01b81526004016104919190610d5c565b602060405180830381865afa1580156104ae573d6000803e3d6000fd5b505050506040513d601f19601f820116820180604052508101906104d29190611031565b73ffffffffffffffffffffffffffffffffffffffff166108fc829081150290604051600060405180830381858888f19350505050158015610517573d6000803e3d6000fd5b505050565b60008060009054906101000a900473ffffffffffffffffffffffffffffffffffffffff1673ffffffffffffffffffffffffffffffffffffffff1663f0f3f2c8836040518263ffffffff1660e01b81526004016105789190610d5c565b600060405180830381865afa158015610595573d6000803e3d6000fd5b505050506040513d6000823e3d601f19601f820116820180604052508101906105be91906113fb565b608001519050919050565b60008060009054906101000a900473ffffffffffffffffffffffffffffffffffffffff1673ffffffffffffffffffffffffffffffffffffffff1663f0f3f2c8836040518263ffffffff1660e01b81526004016106259190610d5c565b600060405180830381865afa158015610642573d6000803e3d6000fd5b505050506040513d6000823e3d601f19601f8201168201806040525081019061066b91906113fb565b60a001519050919050565b6000600460003373ffffffffffffffffffffffffffffffffffffffff1673ffffffffffffffffffffffffffffffffffffffff16815260200190815260200160002054116106f8576040517f08c379a00000000000000000000000000000000000000000000000000000000081526004016106ef906114b6565b60405180910390fd5b6000600460003373ffffffffffffffffffffffffffffffffffffffff1673ffffffffffffffffffffffffffffffffffffffff1681526020019081526020016000205490506000600460003373ffffffffffffffffffffffffffffffffffffffff1673ffffffffffffffffffffffffffffffffffffffff1681526020019081526020016000208190555080600360008282546107939190611505565b925050819055503373ffffffffffffffffffffffffffffffffffffffff166108fc829081150290604051600060405180830381858888f193505050501580156107e0573d6000803e3d6000fd5b5050565b60025481565b600560009054906101000a900460ff1681565b600160009054906101000a900473ffffffffffffffffffffffffffffffffffffffff1681565b60003411610866576040517f08c379a000000000000000000000000000000000000000000000000000000000815260040161085d906115ab565b60405180910390fd5b600560009054906101000a900460ff16156108b6576040517f08c379a00000000000000000000000000000000000000000000000000000000081526004016108ad90611617565b60405180910390fd5b60006108c1826105c9565b6108ca8361051c565b6108d49190611505565b90506000349050818110610a5f5760008054906101000a900473ffffffffffffffffffffffffffffffffffffffff1673ffffffffffffffffffffffffffffffffffffffff166392256aec846040518263ffffffff1660e01b815260040161093b9190610d5c565b602060405180830381865afa158015610958573d6000803e3d6000fd5b505050506040513d601f19601f8201168201806040525081019061097c9190611031565b73ffffffffffffffffffffffffffffffffffffffff166108fc83836109a19190611505565b9081150290604051600060405180830381858888f193505050501580156109cc573d6000803e3d6000fd5b5060008054906101000a900473ffffffffffffffffffffffffffffffffffffffff1673ffffffffffffffffffffffffffffffffffffffff16638563308784846040518363ffffffff1660e01b8152600401610a28929190611637565b600060405180830381600087803b158015610a4257600080fd5b505af1158015610a56573d6000803e3d6000fd5b50505050610bcd565b60008054906101000a900473ffffffffffffffffffffffffffffffffffffffff1673ffffffffffffffffffffffffffffffffffffffff16638563308784836040518363ffffffff1660e01b8152600401610aba929190611637565b600060405180830381600087803b158015610ad457600080fd5b505af1158015610ae8573d6000803e3d6000fd5b5050505060008054906101000a900473ffffffffffffffffffffffffffffffffffffffff1673ffffffffffffffffffffffffffffffffffffffff166392256aec846040518263ffffffff1660e01b8152600401610b459190610d5c565b602060405180830381865afa158015610b62573d6000803e3d6000fd5b505050506040513d601f19601f82011682018060405250810190610b869190611031565b73ffffffffffffffffffffffffffffffffffffffff166108fc829081150290604051600060405180830381858888f19350505050158015610bcb573d6000803e3d6000fd5b505b505050565b606060008054906101000a900473ffffffffffffffffffffffffffffffffffffffff1673ffffffffffffffffffffffffffffffffffffffff1663f0f3f2c8836040518263ffffffff1660e01b8152600401610c2d9190610d5c565b600060405180830381865afa158015610c4a573d6000803e3d6000fd5b505050506040513d6000823e3d601f19601f82011682018060405250810190610c7391906113fb565b600001519050919050565b600560019054906101000a900473ffffffffffffffffffffffffffffffffffffffff1681565b6000604051905090565b600080fd5b600080fd5b600073ffffffffffffffffffffffffffffffffffffffff82169050919050565b6000610ce382610cb8565b9050919050565b610cf381610cd8565b8114610cfe57600080fd5b50565b600081359050610d1081610cea565b92915050565b600060208284031215610d2c57610d2b610cae565b5b6000610d3a84828501610d01565b91505092915050565b6000819050919050565b610d5681610d43565b82525050565b6000602082019050610d716000830184610d4d565b92915050565b610d8081610d43565b8114610d8b57600080fd5b50565b600081359050610d9d81610d77565b92915050565b600060208284031215610db957610db8610cae565b5b6000610dc784828501610d8e565b91505092915050565b60008115159050919050565b610de581610dd0565b82525050565b6000602082019050610e006000830184610ddc565b92915050565b6000610e1182610cb8565b9050919050565b610e2181610e06565b82525050565b6000602082019050610e3c6000830184610e18565b92915050565b600081519050919050565b600082825260208201905092915050565b60005b83811015610e7c578082015181840152602081019050610e61565b60008484015250505050565b6000601f19601f8301169050919050565b6000610ea482610e42565b610eae8185610e4d565b9350610ebe818560208601610e5e565b610ec781610e88565b840191505092915050565b60006020820190508181036000830152610eec8184610e99565b905092915050565b610efd81610cd8565b82525050565b6000602082019050610f186000830184610ef4565b92915050565b7f46756e64696e6720676f616c206e6f7420726561636865640000000000000000600082015250565b6000610f54601883610e4d565b9150610f5f82610f1e565b602082019050919050565b60006020820190508181036000830152610f8381610f47565b9050919050565b7f4f6e6c792070726f6a656374206f776e65722063616e2077697468647261772060008201527f66756e6473000000000000000000000000000000000000000000000000000000602082015250565b6000610fe6602583610e4d565b9150610ff182610f8a565b604082019050919050565b6000602082019050818103600083015261101581610fd9565b9050919050565b60008151905061102b81610cea565b92915050565b60006020828403121561104757611046610cae565b5b60006110558482850161101c565b91505092915050565b600080fd5b7f4e487b7100000000000000000000000000000000000000000000000000000000600052604160045260246000fd5b61109b82610e88565b810181811067ffffffffffffffff821117156110ba576110b9611063565b5b80604052505050565b60006110cd610ca4565b90506110d98282611092565b919050565b600080fd5b600080fd5b600080fd5b600067ffffffffffffffff82111561110857611107611063565b5b61111182610e88565b9050602081019050919050565b600061113161112c846110ed565b6110c3565b90508281526020810184848401111561114d5761114c6110e8565b5b611158848285610e5e565b509392505050565b600082601f830112611175576111746110e3565b5b815161118584826020860161111e565b91505092915050565b60008151905061119d81610d77565b92915050565b600067ffffffffffffffff8211156111be576111bd611063565b5b602082029050602081019050919050565b600080fd5b60006111e76111e2846111a3565b6110c3565b9050808382526020820190506020840283018581111561120a576112096111cf565b5b835b8181101561125157805167ffffffffffffffff81111561122f5761122e6110e3565b5b80860161123c8982611160565b8552602085019450505060208101905061120c565b5050509392505050565b600082601f8301126112705761126f6110e3565b5b81516112808482602086016111d4565b91505092915050565b600061010082840312156112a05761129f61105e565b5b6112ab6101006110c3565b9050600082015167ffffffffffffffff8111156112cb576112ca6110de565b5b6112d784828501611160565b600083015250602082015167ffffffffffffffff8111156112fb576112fa6110de565b5b61130784828501611160565b602083015250604082015167ffffffffffffffff81111561132b5761132a6110de565b5b61133784828501611160565b604083015250606082015167ffffffffffffffff81111561135b5761135a6110de565b5b61136784828501611160565b606083015250608061137b8482850161118e565b60808301525060a061138f8482850161118e565b60a08301525060c082015167ffffffffffffffff8111156113b3576113b26110de565b5b6113bf8482850161125b565b60c08301525060e082015167ffffffffffffffff8111156113e3576113e26110de565b5b6113ef84828501611160565b60e08301525092915050565b60006020828403121561141157611410610cae565b5b600082015167ffffffffffffffff81111561142f5761142e610cb3565b5b61143b84828501611289565b91505092915050565b7f4e6f20636f6e747269627574696f6e20666f756e6420666f722074686973206160008201527f6464726573730000000000000000000000000000000000000000000000000000602082015250565b60006114a0602683610e4d565b91506114ab82611444565b604082019050919050565b600060208201905081810360008301526114cf81611493565b9050919050565b7f4e487b7100000000000000000000000000000000000000000000000000000000600052601160045260246000fd5b600061151082610d43565b915061151b83610d43565b9250828203905081811115611533576115326114d6565b5b92915050565b7f436f6e747269627574696f6e20616d6f756e74206d757374206265206772656160008201527f746572207468616e203000000000000000000000000000000000000000000000602082015250565b6000611595602a83610e4d565b91506115a082611539565b604082019050919050565b600060208201905081810360008301526115c481611588565b9050919050565b7f46756e64696e6720676f616c20616c7265616479207265616368656400000000600082015250565b6000611601601c83610e4d565b915061160c826115cb565b602082019050919050565b60006020820190508181036000830152611630816115f4565b9050919050565b600060408201905061164c6000830185610d4d565b6116596020830184610d4d565b939250505056fea264697066735822122039f7559f1cd83ac6c55d61161d914b08fd5482d0f73d3b698b15ad2255302d8264736f6c63430008130033",
  "immutableReferences": {},
  "source": "//SPDX-License-Identifier: UNLICENSED\r\npragma solidity >=0.6.0 < 0.9.0;\r\n\r\n//---------------------------------CONTRACT #1-------------------------------------//\r\n// contract funding{\r\n//     mapping(address=>uint) public contributors; //contributors[msg.sender]=100\r\n//     address public manager; \r\n//     uint public minimumContribution;\r\n//     uint public deadline;\r\n//     uint public target;\r\n//     uint public raisedAmount;\r\n//     uint public noOfContributors;\r\n    \r\n//     struct Request{\r\n//         string description;\r\n//         address payable recipient;\r\n//         uint value;\r\n//         bool completed;\r\n//         uint noOfVoters;\r\n//         mapping(address=>bool) voters;\r\n//     }\r\n\r\n//     mapping(uint=>Request) public requests;\r\n//     uint public numRequests;\r\n\r\n//     constructor (uint _target,uint _deadline){\r\n//         target=_target;\r\n//         deadline=block.timestamp+_deadline; //10sec + 3600sec (60*60)\r\n//         minimumContribution=100 wei;\r\n//         manager=msg.sender;\r\n//     }\r\n    \r\n// // Donor functions\r\n// // 1. Donate Money\r\n//     function sendEth() public payable{\r\n//         require(block.timestamp < deadline,\"Deadline has passed\");\r\n//         require(msg.value >=minimumContribution,\"Minimum Contribution is not met\");\r\n        \r\n//         if(contributors[msg.sender]==0){\r\n//             noOfContributors++;\r\n//         }\r\n//         contributors[msg.sender]+=msg.value;\r\n//         raisedAmount+=msg.value;\r\n//     }\r\n//     function getContractBalance() public view returns(uint){\r\n//         return address(this).balance;\r\n//     }\r\n\r\n// // 2. Request refund\r\n//     function refund() public payable{\r\n//         // require(block.timestamp>deadline && raisedAmount<target,\"You are not eligible for refund\");\r\n//         require(contributors[msg.sender]>0);\r\n//         address payable user= payable(msg.sender);\r\n//         user.transfer(contributors[msg.sender]);\r\n//         raisedAmount -= contributors[msg.sender];\r\n//         noOfContributors--;\r\n//         contributors[msg.sender]=0;\r\n        \r\n//     }\r\n\r\n// // 3. To get votes from existing contributors to allocate the new project\r\n//     function voteRequest(uint _requestNo) public{\r\n//         require(contributors[msg.sender]>0,\"You must be contributor\");\r\n//         Request storage thisRequest=requests[_requestNo];\r\n//         require(thisRequest.voters[msg.sender]==false,\"You have already voted\");\r\n//         thisRequest.voters[msg.sender]=true;\r\n//         thisRequest.noOfVoters++;\r\n//     }\r\n\r\n// // modifier to check if the function is accessed by the manager(as some functions cannot be accessed by anybody else)\r\n//     modifier onlyManager(){\r\n//         require(msg.sender == manager,\"Only manager can call this function\");\r\n//         _;\r\n//     }\r\n\r\n// // Manager(Admin) Functions\r\n// // 1. To create new Project allocations\r\n//     function createRequests(string memory _description,address payable _recipient,uint _value)public onlyManager{\r\n//         Request storage newRequest = requests[numRequests];\r\n//         numRequests++;\r\n//         newRequest.description=_description;\r\n//         newRequest.recipient=_recipient;\r\n//         newRequest.value=_value;\r\n//         newRequest.completed=false;\r\n//         newRequest.noOfVoters=0;\r\n//     }\r\n\r\n\r\n// }\r\n\r\n\r\n//---------------------------------CONTRACT #2-------------------------------------//\r\n// contract funding {\r\n    \r\n//     // Project struct to store project details\r\n//     struct Project {\r\n//         address owner;\r\n//         string title;\r\n//         string description;\r\n//         uint goal;\r\n//         uint raised;\r\n//         bool completed;\r\n//         mapping(address => uint) contributions;\r\n//     }\r\n    \r\n//     // Array of projects\r\n//     Project[] public projects;\r\n    \r\n//     // Event emitted when a new project is created\r\n//     // event ProjectCreated(uint projectId, address owner, string title, string description, uint goal);\r\n    \r\n//     // Event emitted when a project is funded\r\n//     event ProjectFunded(uint projectId, address funder, uint amount);\r\n    \r\n    \r\n//     // Function to fund a project\r\n//     function fundProject(uint _projectId) public payable {\r\n//         Project storage project = projects[_projectId];\r\n//         require(msg.value > 0, \"Amount should be greater than 0\");\r\n//         require(!project.completed, \"Project is already completed\");\r\n//         require(project.raised < project.goal, \"Project goal is already reached\");\r\n//         project.contributions[msg.sender] += msg.value;\r\n//         project.raised += msg.value;\r\n//         emit ProjectFunded(_projectId, msg.sender, msg.value);\r\n//     }\r\n    \r\n//     // Function to check the contribution of a funder for a project\r\n//     function checkContribution(uint _projectId) public view returns(uint) {\r\n//         return projects[_projectId].contributions[msg.sender];\r\n//     }\r\n    \r\n//     // Function to check the status of a project\r\n//     function checkProjectStatus(uint _projectId) public view returns(bool) {\r\n//         return projects[_projectId].completed;\r\n//     }\r\n    \r\n//     // Function to complete a project and transfer funds to owner\r\n//     function completeProject(uint _projectId) public {\r\n//         Project storage project = projects[_projectId];\r\n//         require(!project.completed, \"Project is already completed\");\r\n//         require(project.raised >= project.goal, \"Project goal is not reached\");\r\n//         project.completed = true;\r\n//         payable(project.owner).transfer(project.raised);\r\n//     }\r\n// }\r\n\r\n\r\n\r\n//---------------------------------CONTRACT #3-------------------------------------//\r\n// import \"./ProjectDetails.sol\";\r\n\r\n// contract funding {\r\n\r\n//     // Project Contract\r\n//     ProjectDetails projectDetails;\r\n\r\n//     address payable public projectOwner;\r\n//     uint public fundingGoal;\r\n//     uint public totalAmountRaised;\r\n//     mapping(address => uint) public contributors;\r\n//     bool public goalReached;\r\n\r\n//     address public admin;\r\n\r\n//     // constructor(address payable _projectOwner, uint _fundingGoal, address _admin) {\r\n//     //     projectOwner = _projectOwner;\r\n//     //     fundingGoal = _fundingGoal;\r\n//     //     admin = _admin;\r\n//     // }\r\n\r\n//     constructor() {\r\n//         projectDetails = ProjectDetails(0x00Ec53B0d9D1725C90D0b740c7ABA9cb277a23dc);\r\n//         // admin = _admin;\r\n//     }\r\n\r\n\r\n//     function contribute(uint256 _projectId) public payable {\r\n//         require(msg.value > 0, \"Contribution amount must be greater than 0\");\r\n//         require(msg.value < projectDetails.getProject(_projectId).amountToRaise, \"Funding goal already reached\");\r\n//         projectDetails.getProject(_projectId).amountRaised += msg.value;\r\n//         contributors[msg.sender] += msg.value;\r\n//         totalAmountRaised += msg.value;\r\n//         payable(projectDetails.getProjectOwner(_projectId)).transfer(msg.value);\r\n//     }\r\n\r\n//     function withdraw() public {\r\n//         require(goalReached, \"Funding goal not reached\");\r\n//         require(msg.sender == projectOwner, \"Only project owner can withdraw funds\");\r\n//         payable(msg.sender).transfer(address(this).balance);\r\n//     }\r\n\r\n//     function checkGoalReached() public {\r\n//         if (totalAmountRaised >= fundingGoal) {\r\n//             goalReached = true;\r\n//         }\r\n//     }\r\n\r\n//     function refund() public {\r\n//         require(contributors[msg.sender] > 0, \"No contribution found for this address\");\r\n//         uint amount = contributors[msg.sender];\r\n//         contributors[msg.sender] = 0;\r\n//         totalAmountRaised -= amount;\r\n//         payable(msg.sender).transfer(amount);\r\n//     }\r\n// }\r\n\r\n\r\n//---------------------------------CONTRACT #4-------------------------------------//\r\nimport \"./ProjectDetails.sol\";\r\n\r\ncontract funding {\r\n\r\n    // Project Contract\r\n    ProjectDetails projectDetails;\r\n\r\n    address payable public projectOwner;\r\n    uint public fundingGoal;\r\n    uint public totalAmountRaised;\r\n    mapping(address => uint) public contributors;\r\n    bool public goalReached;\r\n\r\n    address public admin;\r\n\r\n    constructor() {\r\n        projectDetails = ProjectDetails(0xAC59667E090C5f2e69E5B1F2Fe05423D825f67A2);\r\n        // admin = _admin;\r\n    }\r\n\r\n    // function weiToEther(uint256 weiAmount) public pure returns (uint256) {\r\n    //     return weiAmount / 1 ether;\r\n    // }\r\n\r\n\r\n\r\n    function contribute(uint256 _projectId) public payable {\r\n        require(msg.value > 0, \"Contribution amount must be greater than 0\");\r\n        require(!goalReached, \"Funding goal already reached\");\r\n\r\n        uint256 remainingAmount = getToRaised(_projectId) - getProjectAmountRaised(_projectId);\r\n        uint256 etherAmount = msg.value;\r\n\r\n        // CHANGES                                \r\n        if (etherAmount >= remainingAmount) {\r\n            // Adjust the contribution amount to the remaining amount required to reach the funding goal\r\n            payable(projectDetails.getProjectOwner(_projectId)).transfer(etherAmount - remainingAmount);\r\n            projectDetails.addAmountRaised(_projectId, remainingAmount);\r\n        } else {\r\n            projectDetails.addAmountRaised(_projectId, etherAmount);\r\n            payable(projectDetails.getProjectOwner(_projectId)).transfer(etherAmount);\r\n        }\r\n        \r\n        \r\n    }\r\n\r\n    // remix\r\n    function getProjectName(uint256 _projectId) public view returns (string memory) {\r\n        return projectDetails.getProject(_projectId).title;\r\n    }\r\n\r\n    // remix\r\n    function getProjectAmountRaised(uint256 _projectId) public view returns (uint256) {\r\n        return projectDetails.getProject(_projectId).amountRaised;\r\n    }\r\n\r\n    function getToRaised(uint256 _projectId) public view returns (uint256) {\r\n        return projectDetails.getProject(_projectId).amountToRaise;\r\n    }\r\n\r\n    function withdraw(uint256 _projectId) public {\r\n        require(goalReached, \"Funding goal not reached\");\r\n        require(msg.sender == projectOwner, \"Only project owner can withdraw funds\");\r\n        // add all the required require conditions\r\n\r\n        uint256 etherAmount = getProjectAmountRaised(_projectId);\r\n        payable(projectDetails.getProjectOwner(_projectId)).transfer(etherAmount);\r\n    }\r\n\r\n    function checkGoalReached() public {\r\n        if (totalAmountRaised >= fundingGoal) {\r\n            goalReached = true;\r\n        }\r\n    }\r\n\r\n    function refund() public {\r\n        require(contributors[msg.sender] > 0, \"No contribution found for this address\");\r\n        uint amount = contributors[msg.sender];\r\n        contributors[msg.sender] = 0;\r\n        totalAmountRaised -= amount;\r\n        payable(msg.sender).transfer(amount);\r\n    }\r\n}\r\n\r\n",
  "sourcePath": "D:\\BE\\be project\\Crowdfunding-System-using-Blockchain\\contracts\\funding.sol",
  "compiler": {
    "name": "solc",
    "version": "0.8.19+commit.7dd6d404.Emscripten.clang"
  },
  "schemaVersion": "3.4.13",
  "updatedAt": "2023-05-29T10:17:44.288Z",
  "networkType": "ethereum",
  "devdoc": {
    "kind": "dev",
    "methods": {},
    "version": 1
  },
  "userdoc": {
    "kind": "user",
    "methods": {},
    "version": 1
  }
}