{
  "contractName": "ProjectDetails",
  "abi": [
    {
      "inputs": [
        {
          "internalType": "address",
          "name": "_admin",
          "type": "address"
        }
      ],
      "stateMutability": "nonpayable",
      "type": "constructor"
    },
    {
      "inputs": [],
      "name": "admin",
      "outputs": [
        {
          "internalType": "address",
          "name": "",
          "type": "address"
        }
      ],
      "stateMutability": "view",
      "type": "function",
      "constant": true
    },
    {
      "inputs": [
        {
          "internalType": "string",
          "name": "_title",
          "type": "string"
        },
        {
          "internalType": "string",
          "name": "_description",
          "type": "string"
        },
        {
          "internalType": "string",
          "name": "_startDate",
          "type": "string"
        },
        {
          "internalType": "string",
          "name": "_endDate",
          "type": "string"
        },
        {
          "internalType": "uint256",
          "name": "_amountToRaise",
          "type": "uint256"
        }
      ],
      "name": "createProject",
      "outputs": [],
      "stateMutability": "nonpayable",
      "type": "function"
    },
    {
      "inputs": [
        {
          "internalType": "uint256",
          "name": "_projectId",
          "type": "uint256"
        },
        {
          "internalType": "string[]",
          "name": "_milestones",
          "type": "string[]"
        }
      ],
      "name": "setMilestones",
      "outputs": [],
      "stateMutability": "nonpayable",
      "type": "function"
    },
    {
      "inputs": [
        {
          "internalType": "uint256",
          "name": "_projectId",
          "type": "uint256"
        },
        {
          "internalType": "uint256",
          "name": "_amountRaised",
          "type": "uint256"
        }
      ],
      "name": "addAmountRaised",
      "outputs": [],
      "stateMutability": "nonpayable",
      "type": "function"
    },
    {
      "inputs": [
        {
          "internalType": "uint256",
          "name": "_projectId",
          "type": "uint256"
        }
      ],
      "name": "getProjectOwner",
      "outputs": [
        {
          "internalType": "address",
          "name": "",
          "type": "address"
        }
      ],
      "stateMutability": "view",
      "type": "function",
      "constant": true
    },
    {
      "inputs": [],
      "name": "getCurrentProjectId",
      "outputs": [
        {
          "internalType": "uint256[]",
          "name": "",
          "type": "uint256[]"
        }
      ],
      "stateMutability": "view",
      "type": "function",
      "constant": true
    },
    {
      "inputs": [
        {
          "internalType": "uint256",
          "name": "_projectId",
          "type": "uint256"
        }
      ],
      "name": "approveProject",
      "outputs": [],
      "stateMutability": "nonpayable",
      "type": "function"
    },
    {
      "inputs": [
        {
          "internalType": "uint256",
          "name": "_projectId",
          "type": "uint256"
        }
      ],
      "name": "rejectProject",
      "outputs": [],
      "stateMutability": "nonpayable",
      "type": "function"
    },
    {
      "inputs": [
        {
          "internalType": "uint256",
          "name": "_index",
          "type": "uint256"
        }
      ],
      "name": "abortProject",
      "outputs": [],
      "stateMutability": "nonpayable",
      "type": "function"
    },
    {
      "inputs": [
        {
          "internalType": "uint256",
          "name": "_projectId",
          "type": "uint256"
        }
      ],
      "name": "isProjectApproved",
      "outputs": [
        {
          "internalType": "string",
          "name": "",
          "type": "string"
        }
      ],
      "stateMutability": "view",
      "type": "function",
      "constant": true
    },
    {
      "inputs": [
        {
          "internalType": "uint256",
          "name": "projectId",
          "type": "uint256"
        }
      ],
      "name": "getProject",
      "outputs": [
        {
          "components": [
            {
              "internalType": "string",
              "name": "title",
              "type": "string"
            },
            {
              "internalType": "string",
              "name": "description",
              "type": "string"
            },
            {
              "internalType": "string",
              "name": "startDate",
              "type": "string"
            },
            {
              "internalType": "string",
              "name": "endDate",
              "type": "string"
            },
            {
              "internalType": "uint256",
              "name": "amountToRaise",
              "type": "uint256"
            },
            {
              "internalType": "uint256",
              "name": "amountRaised",
              "type": "uint256"
            },
            {
              "internalType": "string[]",
              "name": "milestones",
              "type": "string[]"
            },
            {
              "internalType": "string",
              "name": "approved",
              "type": "string"
            }
          ],
          "internalType": "struct ProjectDetails.Project",
          "name": "",
          "type": "tuple"
        }
      ],
      "stateMutability": "view",
      "type": "function",
      "constant": true
    },
    {
      "inputs": [],
      "name": "getProjectDetails",
      "outputs": [
        {
          "components": [
            {
              "internalType": "string",
              "name": "title",
              "type": "string"
            },
            {
              "internalType": "string",
              "name": "description",
              "type": "string"
            },
            {
              "internalType": "string",
              "name": "startDate",
              "type": "string"
            },
            {
              "internalType": "string",
              "name": "endDate",
              "type": "string"
            },
            {
              "internalType": "uint256",
              "name": "amountToRaise",
              "type": "uint256"
            },
            {
              "internalType": "uint256",
              "name": "amountRaised",
              "type": "uint256"
            },
            {
              "internalType": "string[]",
              "name": "milestones",
              "type": "string[]"
            },
            {
              "internalType": "string",
              "name": "approved",
              "type": "string"
            }
          ],
          "internalType": "struct ProjectDetails.Project[]",
          "name": "",
          "type": "tuple[]"
        }
      ],
      "stateMutability": "view",
      "type": "function",
      "constant": true
    },
    {
      "inputs": [],
      "name": "getAllProjects",
      "outputs": [
        {
          "components": [
            {
              "internalType": "string",
              "name": "title",
              "type": "string"
            },
            {
              "internalType": "string",
              "name": "description",
              "type": "string"
            },
            {
              "internalType": "string",
              "name": "startDate",
              "type": "string"
            },
            {
              "internalType": "string",
              "name": "endDate",
              "type": "string"
            },
            {
              "internalType": "uint256",
              "name": "amountToRaise",
              "type": "uint256"
            },
            {
              "internalType": "uint256",
              "name": "amountRaised",
              "type": "uint256"
            },
            {
              "internalType": "string[]",
              "name": "milestones",
              "type": "string[]"
            },
            {
              "internalType": "string",
              "name": "approved",
              "type": "string"
            }
          ],
          "internalType": "struct ProjectDetails.Project[]",
          "name": "",
          "type": "tuple[]"
        }
      ],
      "stateMutability": "view",
      "type": "function",
      "constant": true
    }
  ],
  "bytecode": "0x60806040523480156200001157600080fd5b5060405162002b1b38038062002b1b8339818101604052810190620000379190620000e8565b806000806101000a81548173ffffffffffffffffffffffffffffffffffffffff021916908373ffffffffffffffffffffffffffffffffffffffff160217905550506200011a565b600080fd5b600073ffffffffffffffffffffffffffffffffffffffff82169050919050565b6000620000b08262000083565b9050919050565b620000c281620000a3565b8114620000ce57600080fd5b50565b600081519050620000e281620000b7565b92915050565b6000602082840312156200010157620001006200007e565b5b60006200011184828501620000d1565b91505092915050565b6129f1806200012a6000396000f3fe608060405234801561001057600080fd5b50600436106100cf5760003560e01c8063a3bfb7bd1161008c578063f0f3f2c811610066578063f0f3f2c8146101fc578063f851a4401461022c578063fc69d8361461024a578063ff3a9c7e14610266576100cf565b8063a3bfb7bd146101a6578063a78c389a146101c2578063c868ba9a146101de576100cf565b8063083b9bf9146100d457806369b04f19146100f05780636c88163f1461010c57806380d038291461013c578063856330871461015a57806392256aec14610176575b600080fd5b6100ee60048036038101906100e99190611cbe565b610284565b005b61010a60048036038101906101059190611d1a565b610363565b005b61012660048036038101906101219190611d1a565b61045c565b6040516101339190611dc6565b60405180910390f35b610144610513565b6040516101519190612098565b60405180910390f35b610174600480360381019061016f91906120ba565b61093a565b005b610190600480360381019061018b9190611d1a565b61097a565b60405161019d919061213b565b60405180910390f35b6101c060048036038101906101bb9190611d1a565b6109b7565b005b6101dc60048036038101906101d79190612156565b610b6f565b005b6101e6610dc3565b6040516101f391906122f0565b60405180910390f35b61021660048036038101906102119190611d1a565b610e58565b60405161022391906123e5565b60405180910390f35b6102346112a3565b604051610241919061213b565b60405180910390f35b610264600480360381019061025f9190611d1a565b6112c7565b005b61026e6113c0565b60405161027b9190612098565b60405180910390f35b3373ffffffffffffffffffffffffffffffffffffffff166001600084815260200190815260200160002060009054906101000a900473ffffffffffffffffffffffffffffffffffffffff1673ffffffffffffffffffffffffffffffffffffffff1614610325576040517f08c379a000000000000000000000000000000000000000000000000000000000815260040161031c90612479565b60405180910390fd5b806003838154811061033a57610339612499565b5b9060005260206000209060080201600601908051906020019061035e929190611908565b505050565b60008054906101000a900473ffffffffffffffffffffffffffffffffffffffff1673ffffffffffffffffffffffffffffffffffffffff163373ffffffffffffffffffffffffffffffffffffffff16146103f1576040517f08c379a00000000000000000000000000000000000000000000000000000000081526004016103e890612514565b60405180910390fd5b6040518060400160405280600581526020017f66616c73650000000000000000000000000000000000000000000000000000008152506003828154811061043b5761043a612499565b5b906000526020600020906008020160070190816104589190612740565b5050565b60606003828154811061047257610471612499565b5b9060005260206000209060080201600701805461048e90612563565b80601f01602080910402602001604051908101604052809291908181526020018280546104ba90612563565b80156105075780601f106104dc57610100808354040283529160200191610507565b820191906000526020600020905b8154815290600101906020018083116104ea57829003601f168201915b50505050509050919050565b60606003805480602002602001604051908101604052809291908181526020016000905b8282101561093157838290600052602060002090600802016040518061010001604052908160008201805461056b90612563565b80601f016020809104026020016040519081016040528092919081815260200182805461059790612563565b80156105e45780601f106105b9576101008083540402835291602001916105e4565b820191906000526020600020905b8154815290600101906020018083116105c757829003601f168201915b505050505081526020016001820180546105fd90612563565b80601f016020809104026020016040519081016040528092919081815260200182805461062990612563565b80156106765780601f1061064b57610100808354040283529160200191610676565b820191906000526020600020905b81548152906001019060200180831161065957829003601f168201915b5050505050815260200160028201805461068f90612563565b80601f01602080910402602001604051908101604052809291908181526020018280546106bb90612563565b80156107085780601f106106dd57610100808354040283529160200191610708565b820191906000526020600020905b8154815290600101906020018083116106eb57829003601f168201915b5050505050815260200160038201805461072190612563565b80601f016020809104026020016040519081016040528092919081815260200182805461074d90612563565b801561079a5780601f1061076f5761010080835404028352916020019161079a565b820191906000526020600020905b81548152906001019060200180831161077d57829003601f168201915b50505050508152602001600482015481526020016005820154815260200160068201805480602002602001604051908101604052809291908181526020016000905b828210156108885783829060005260206000200180546107fb90612563565b80601f016020809104026020016040519081016040528092919081815260200182805461082790612563565b80156108745780601f1061084957610100808354040283529160200191610874565b820191906000526020600020905b81548152906001019060200180831161085757829003601f168201915b5050505050815260200190600101906107dc565b5050505081526020016007820180546108a090612563565b80601f01602080910402602001604051908101604052809291908181526020018280546108cc90612563565b80156109195780601f106108ee57610100808354040283529160200191610919565b820191906000526020600020905b8154815290600101906020018083116108fc57829003601f168201915b50505050508152505081526020019060010190610537565b50505050905090565b806003838154811061094f5761094e612499565b5b9060005260206000209060080201600501600082825461096f9190612841565b925050819055505050565b60006001600083815260200190815260200160002060009054906101000a900473ffffffffffffffffffffffffffffffffffffffff169050919050565b3373ffffffffffffffffffffffffffffffffffffffff166001600083815260200190815260200160002060009054906101000a900473ffffffffffffffffffffffffffffffffffffffff1673ffffffffffffffffffffffffffffffffffffffff1614610a58576040517f08c379a0000000000000000000000000000000000000000000000000000000008152600401610a4f906128e7565b60405180910390fd5b600060038281548110610a6e57610a6d612499565b5b9060005260206000209060080201905060038281548110610a9257610a91612499565b5b906000526020600020906008020160008082016000610ab19190611961565b600182016000610ac19190611961565b600282016000610ad19190611961565b600382016000610ae19190611961565b60048201600090556005820160009055600682016000610b0191906119a1565b600782016000610b119190611961565b5050806000016000610b239190611961565b806001016000610b339190611961565b806002016000610b439190611961565b806003016000610b539190611961565b8060040160009055806006016000610b6b91906119a1565b5050565b60006003805490509050600360405180610100016040528088815260200187815260200186815260200185815260200184815260200160008152602001600067ffffffffffffffff811115610bc757610bc6611aa8565b5b604051908082528060200260200182016040528015610bfa57816020015b6060815260200190600190039081610be55790505b5081526020016040518060400160405280600781526020017f6e6f74207365740000000000000000000000000000000000000000000000000081525081525090806001815401808255809150506001900390600052602060002090600802016000909190919091506000820151816000019081610c779190612740565b506020820151816001019081610c8d9190612740565b506040820151816002019081610ca39190612740565b506060820151816003019081610cb99190612740565b506080820151816004015560a0820151816005015560c0820151816006019080519060200190610cea929190611908565b5060e0820151816007019081610d009190612740565b505050336001600083815260200190815260200160002060006101000a81548173ffffffffffffffffffffffffffffffffffffffff021916908373ffffffffffffffffffffffffffffffffffffffff160217905550600260003373ffffffffffffffffffffffffffffffffffffffff1673ffffffffffffffffffffffffffffffffffffffff168152602001908152602001600020819080600181540180825580915050600190039060005260206000200160009091909190915055505050505050565b6060600260003373ffffffffffffffffffffffffffffffffffffffff1673ffffffffffffffffffffffffffffffffffffffff168152602001908152602001600020805480602002602001604051908101604052809291908181526020018280548015610e4e57602002820191906000526020600020905b815481526020019060010190808311610e3a575b5050505050905090565b610e606119c2565b6003805490508210610ea7576040517f08c379a0000000000000000000000000000000000000000000000000000000008152600401610e9e90612953565b60405180910390fd5b60038281548110610ebb57610eba612499565b5b906000526020600020906008020160405180610100016040529081600082018054610ee590612563565b80601f0160208091040260200160405190810160405280929190818152602001828054610f1190612563565b8015610f5e5780601f10610f3357610100808354040283529160200191610f5e565b820191906000526020600020905b815481529060010190602001808311610f4157829003601f168201915b50505050508152602001600182018054610f7790612563565b80601f0160208091040260200160405190810160405280929190818152602001828054610fa390612563565b8015610ff05780601f10610fc557610100808354040283529160200191610ff0565b820191906000526020600020905b815481529060010190602001808311610fd357829003601f168201915b5050505050815260200160028201805461100990612563565b80601f016020809104026020016040519081016040528092919081815260200182805461103590612563565b80156110825780601f1061105757610100808354040283529160200191611082565b820191906000526020600020905b81548152906001019060200180831161106557829003601f168201915b5050505050815260200160038201805461109b90612563565b80601f01602080910402602001604051908101604052809291908181526020018280546110c790612563565b80156111145780601f106110e957610100808354040283529160200191611114565b820191906000526020600020905b8154815290600101906020018083116110f757829003601f168201915b50505050508152602001600482015481526020016005820154815260200160068201805480602002602001604051908101604052809291908181526020016000905b8282101561120257838290600052602060002001805461117590612563565b80601f01602080910402602001604051908101604052809291908181526020018280546111a190612563565b80156111ee5780601f106111c3576101008083540402835291602001916111ee565b820191906000526020600020905b8154815290600101906020018083116111d157829003601f168201915b505050505081526020019060010190611156565b50505050815260200160078201805461121a90612563565b80601f016020809104026020016040519081016040528092919081815260200182805461124690612563565b80156112935780601f1061126857610100808354040283529160200191611293565b820191906000526020600020905b81548152906001019060200180831161127657829003601f168201915b5050505050815250509050919050565b60008054906101000a900473ffffffffffffffffffffffffffffffffffffffff1681565b60008054906101000a900473ffffffffffffffffffffffffffffffffffffffff1673ffffffffffffffffffffffffffffffffffffffff163373ffffffffffffffffffffffffffffffffffffffff1614611355576040517f08c379a000000000000000000000000000000000000000000000000000000000815260040161134c90612514565b60405180910390fd5b6040518060400160405280600481526020017f74727565000000000000000000000000000000000000000000000000000000008152506003828154811061139f5761139e612499565b5b906000526020600020906008020160070190816113bc9190612740565b5050565b60606000600260003373ffffffffffffffffffffffffffffffffffffffff1673ffffffffffffffffffffffffffffffffffffffff16815260200190815260200160002080548060200260200160405190810160405280929190818152602001828054801561144d57602002820191906000526020600020905b815481526020019060010190808311611439575b505050505090506000815167ffffffffffffffff81111561147157611470611aa8565b5b6040519080825280602002602001820160405280156114aa57816020015b6114976119c2565b81526020019060019003908161148f5790505b50905060005b82518110156118ff5760008382815181106114ce576114cd612499565b5b60200260200101519050600381815481106114ec576114eb612499565b5b90600052602060002090600802016040518061010001604052908160008201805461151690612563565b80601f016020809104026020016040519081016040528092919081815260200182805461154290612563565b801561158f5780601f106115645761010080835404028352916020019161158f565b820191906000526020600020905b81548152906001019060200180831161157257829003601f168201915b505050505081526020016001820180546115a890612563565b80601f01602080910402602001604051908101604052809291908181526020018280546115d490612563565b80156116215780601f106115f657610100808354040283529160200191611621565b820191906000526020600020905b81548152906001019060200180831161160457829003601f168201915b5050505050815260200160028201805461163a90612563565b80601f016020809104026020016040519081016040528092919081815260200182805461166690612563565b80156116b35780601f10611688576101008083540402835291602001916116b3565b820191906000526020600020905b81548152906001019060200180831161169657829003601f168201915b505050505081526020016003820180546116cc90612563565b80601f01602080910402602001604051908101604052809291908181526020018280546116f890612563565b80156117455780601f1061171a57610100808354040283529160200191611745565b820191906000526020600020905b81548152906001019060200180831161172857829003601f168201915b50505050508152602001600482015481526020016005820154815260200160068201805480602002602001604051908101604052809291908181526020016000905b828210156118335783829060005260206000200180546117a690612563565b80601f01602080910402602001604051908101604052809291908181526020018280546117d290612563565b801561181f5780601f106117f45761010080835404028352916020019161181f565b820191906000526020600020905b81548152906001019060200180831161180257829003601f168201915b505050505081526020019060010190611787565b50505050815260200160078201805461184b90612563565b80601f016020809104026020016040519081016040528092919081815260200182805461187790612563565b80156118c45780601f10611899576101008083540402835291602001916118c4565b820191906000526020600020905b8154815290600101906020018083116118a757829003601f168201915b5050505050815250508383815181106118e0576118df612499565b5b60200260200101819052505080806118f790612973565b9150506114b0565b50809250505090565b828054828255906000526020600020908101928215611950579160200282015b8281111561194f57825182908161193f9190612740565b5091602001919060010190611928565b5b50905061195d9190611a07565b5090565b50805461196d90612563565b6000825580601f1061197f575061199e565b601f01602090049060005260206000209081019061199d9190611a2b565b5b50565b50805460008255906000526020600020908101906119bf9190611a07565b50565b60405180610100016040528060608152602001606081526020016060815260200160608152602001600081526020016000815260200160608152602001606081525090565b5b80821115611a275760008181611a1e9190611961565b50600101611a08565b5090565b5b80821115611a44576000816000905550600101611a2c565b5090565b6000604051905090565b600080fd5b600080fd5b6000819050919050565b611a6f81611a5c565b8114611a7a57600080fd5b50565b600081359050611a8c81611a66565b92915050565b600080fd5b6000601f19601f8301169050919050565b7f4e487b7100000000000000000000000000000000000000000000000000000000600052604160045260246000fd5b611ae082611a97565b810181811067ffffffffffffffff82111715611aff57611afe611aa8565b5b80604052505050565b6000611b12611a48565b9050611b1e8282611ad7565b919050565b600067ffffffffffffffff821115611b3e57611b3d611aa8565b5b602082029050602081019050919050565b600080fd5b600080fd5b600067ffffffffffffffff821115611b7457611b73611aa8565b5b611b7d82611a97565b9050602081019050919050565b82818337600083830152505050565b6000611bac611ba784611b59565b611b08565b905082815260208101848484011115611bc857611bc7611b54565b5b611bd3848285611b8a565b509392505050565b600082601f830112611bf057611bef611a92565b5b8135611c00848260208601611b99565b91505092915050565b6000611c1c611c1784611b23565b611b08565b90508083825260208201905060208402830185811115611c3f57611c3e611b4f565b5b835b81811015611c8657803567ffffffffffffffff811115611c6457611c63611a92565b5b808601611c718982611bdb565b85526020850194505050602081019050611c41565b5050509392505050565b600082601f830112611ca557611ca4611a92565b5b8135611cb5848260208601611c09565b91505092915050565b60008060408385031215611cd557611cd4611a52565b5b6000611ce385828601611a7d565b925050602083013567ffffffffffffffff811115611d0457611d03611a57565b5b611d1085828601611c90565b9150509250929050565b600060208284031215611d3057611d2f611a52565b5b6000611d3e84828501611a7d565b91505092915050565b600081519050919050565b600082825260208201905092915050565b60005b83811015611d81578082015181840152602081019050611d66565b60008484015250505050565b6000611d9882611d47565b611da28185611d52565b9350611db2818560208601611d63565b611dbb81611a97565b840191505092915050565b60006020820190508181036000830152611de08184611d8d565b905092915050565b600081519050919050565b600082825260208201905092915050565b6000819050602082019050919050565b600082825260208201905092915050565b6000611e3082611d47565b611e3a8185611e14565b9350611e4a818560208601611d63565b611e5381611a97565b840191505092915050565b611e6781611a5c565b82525050565b600081519050919050565b600082825260208201905092915050565b6000819050602082019050919050565b6000611ea58383611e25565b905092915050565b6000602082019050919050565b6000611ec582611e6d565b611ecf8185611e78565b935083602082028501611ee185611e89565b8060005b85811015611f1d5784840389528151611efe8582611e99565b9450611f0983611ead565b925060208a01995050600181019050611ee5565b50829750879550505050505092915050565b6000610100830160008301518482036000860152611f4d8282611e25565b91505060208301518482036020860152611f678282611e25565b91505060408301518482036040860152611f818282611e25565b91505060608301518482036060860152611f9b8282611e25565b9150506080830151611fb06080860182611e5e565b5060a0830151611fc360a0860182611e5e565b5060c083015184820360c0860152611fdb8282611eba565b91505060e083015184820360e0860152611ff58282611e25565b9150508091505092915050565b600061200e8383611f2f565b905092915050565b6000602082019050919050565b600061202e82611de8565b6120388185611df3565b93508360208202850161204a85611e04565b8060005b8581101561208657848403895281516120678582612002565b945061207283612016565b925060208a0199505060018101905061204e565b50829750879550505050505092915050565b600060208201905081810360008301526120b28184612023565b905092915050565b600080604083850312156120d1576120d0611a52565b5b60006120df85828601611a7d565b92505060206120f085828601611a7d565b9150509250929050565b600073ffffffffffffffffffffffffffffffffffffffff82169050919050565b6000612125826120fa565b9050919050565b6121358161211a565b82525050565b6000602082019050612150600083018461212c565b92915050565b600080600080600060a0868803121561217257612171611a52565b5b600086013567ffffffffffffffff8111156121905761218f611a57565b5b61219c88828901611bdb565b955050602086013567ffffffffffffffff8111156121bd576121bc611a57565b5b6121c988828901611bdb565b945050604086013567ffffffffffffffff8111156121ea576121e9611a57565b5b6121f688828901611bdb565b935050606086013567ffffffffffffffff81111561221757612216611a57565b5b61222388828901611bdb565b925050608061223488828901611a7d565b9150509295509295909350565b600081519050919050565b600082825260208201905092915050565b6000819050602082019050919050565b60006122798383611e5e565b60208301905092915050565b6000602082019050919050565b600061229d82612241565b6122a7818561224c565b93506122b28361225d565b8060005b838110156122e35781516122ca888261226d565b97506122d583612285565b9250506001810190506122b6565b5085935050505092915050565b6000602082019050818103600083015261230a8184612292565b905092915050565b60006101008301600083015184820360008601526123308282611e25565b9150506020830151848203602086015261234a8282611e25565b915050604083015184820360408601526123648282611e25565b9150506060830151848203606086015261237e8282611e25565b91505060808301516123936080860182611e5e565b5060a08301516123a660a0860182611e5e565b5060c083015184820360c08601526123be8282611eba565b91505060e083015184820360e08601526123d88282611e25565b9150508091505092915050565b600060208201905081810360008301526123ff8184612312565b905092915050565b7f4f6e6c792070726f6a656374206f776e65722063616e20736574206d696c657360008201527f746f6e65732e0000000000000000000000000000000000000000000000000000602082015250565b6000612463602683611d52565b915061246e82612407565b604082019050919050565b6000602082019050818103600083015261249281612456565b9050919050565b7f4e487b7100000000000000000000000000000000000000000000000000000000600052603260045260246000fd5b7f596f7520646f206e6f7420686176652070726976696c65676573000000000000600082015250565b60006124fe601a83611d52565b9150612509826124c8565b602082019050919050565b6000602082019050818103600083015261252d816124f1565b9050919050565b7f4e487b7100000000000000000000000000000000000000000000000000000000600052602260045260246000fd5b6000600282049050600182168061257b57607f821691505b60208210810361258e5761258d612534565b5b50919050565b60008190508160005260206000209050919050565b60006020601f8301049050919050565b600082821b905092915050565b6000600883026125f67fffffffffffffffffffffffffffffffffffffffffffffffffffffffffffffffff826125b9565b61260086836125b9565b95508019841693508086168417925050509392505050565b6000819050919050565b600061263d61263861263384611a5c565b612618565b611a5c565b9050919050565b6000819050919050565b61265783612622565b61266b61266382612644565b8484546125c6565b825550505050565b600090565b612680612673565b61268b81848461264e565b505050565b5b818110156126af576126a4600082612678565b600181019050612691565b5050565b601f8211156126f4576126c581612594565b6126ce846125a9565b810160208510156126dd578190505b6126f16126e9856125a9565b830182612690565b50505b505050565b600082821c905092915050565b6000612717600019846008026126f9565b1980831691505092915050565b60006127308383612706565b9150826002028217905092915050565b61274982611d47565b67ffffffffffffffff81111561276257612761611aa8565b5b61276c8254612563565b6127778282856126b3565b600060209050601f8311600181146127aa5760008415612798578287015190505b6127a28582612724565b86555061280a565b601f1984166127b886612594565b60005b828110156127e0578489015182556001820191506020850194506020810190506127bb565b868310156127fd57848901516127f9601f891682612706565b8355505b6001600288020188555050505b505050505050565b7f4e487b7100000000000000000000000000000000000000000000000000000000600052601160045260246000fd5b600061284c82611a5c565b915061285783611a5c565b925082820190508082111561286f5761286e612812565b5b92915050565b7f4f6e6c792070726f6a656374206f776e65722063616e2061626f72742070726f60008201527f6a6563742e000000000000000000000000000000000000000000000000000000602082015250565b60006128d1602583611d52565b91506128dc82612875565b604082019050919050565b60006020820190508181036000830152612900816128c4565b9050919050565b7f496e76616c69642070726f6a6563742049440000000000000000000000000000600082015250565b600061293d601283611d52565b915061294882612907565b602082019050919050565b6000602082019050818103600083015261296c81612930565b9050919050565b600061297e82611a5c565b91507fffffffffffffffffffffffffffffffffffffffffffffffffffffffffffffffff82036129b0576129af612812565b5b60018201905091905056fea26469706673582212203e0bbcf678d3fea284f96cb0cbeb4cf788023ae46cc52d02f2fe4273572394d264736f6c63430008130033",
  "immutableReferences": {},
  "source": "//SPDX-License-Identifier: UNLICENSED\npragma solidity >=0.6.0 < 0.9.0;\n\n// ----------------------1ST CONTRACT----------------------//\n// contract ProjectDetails {\n//     struct Project {\n//         string title;\n//         string description;\n//         string startDate;\n//         string endDate;\n//         uint256 amountToBeRaised;\n//     }\n\n//     mapping(address => Project) private projects;\n\n//     // Function to store project details\n//     function createProject(\n//         string memory _title,\n//         string memory _description,\n//         string memory _startDate,\n//         string memory _endDate,\n//         uint256 _amountToBeRaised\n//     ) public {\n//         require(bytes(_title).length > 0, \"Title is required\");\n//         require(bytes(_description).length > 0, \"Description is required\");\n//         require(bytes(_startDate).length > 0, \"Start date iitems required\");\n//         require(bytes(_endDate).length > 0, \"End date must be greater than start date\");\n//         require(_amountToBeRaised > 0, \"Amount to be raised must be greater than zero\");\n\n//         Project memory newProject = Project(\n//             _title,\n//             _description,\n//             _startDate,\n//             _endDate,\n//             _amountToBeRaised\n//         );\n\n//         projects[msg.sender] = newProject;\n//     }\n\n//     // Function to retrieve project details\n//     function getProjectDetails() public view returns (Project memory) {\n//         Project memory project = projects[msg.sender];\n\n//         return project;\n//     }\n// }\n\n// ----------------------2ND CONTRACT----------------------//\n\ncontract ProjectDetails {\n    struct Project {\n        string title;\n        string description;\n        string startDate;\n        string endDate;\n        uint256 amountToRaise;\n        uint256 amountRaised;\n        string[] milestones;\n        string approved;\n    }\n\n    address public admin;\n\n    mapping(uint256 => address) private projectOwners;\n    mapping(address => uint256[]) private projectsByOwner;\n\n    Project[] private projects;\n\n    constructor(address _admin) {\n        admin = _admin;\n    }\n\n    function createProject(string memory _title, string memory _description, string memory _startDate, string memory _endDate, uint256 _amountToRaise) public {\n        uint256 projectId = projects.length;\n        projects.push(Project(_title, _description, _startDate, _endDate, _amountToRaise, 0, new string[](0), \"not set\"));\n        projectOwners[projectId] = msg.sender;\n        projectsByOwner[msg.sender].push(projectId);\n    }\n\n    function setMilestones(uint256 _projectId, string[] memory _milestones) public {\n        require(projectOwners[_projectId] == msg.sender, \"Only project owner can set milestones.\");\n        projects[_projectId].milestones = _milestones;\n    }\n\n    function addAmountRaised(uint256 _projectId, uint256 _amountRaised) public {\n        // require(projects[_projectId].amountRaised + _amountRaised < projects[_projectId].amountToRaise, \"Amount should be less than funding goal\");\n        projects[_projectId].amountRaised += _amountRaised;\n    }\n\n    function getProjectOwner(uint256 _projectId) public view returns (address) {\n        return projectOwners[_projectId];\n    }\n\n    function getCurrentProjectId() public view returns (uint256[] memory) {\n        return projectsByOwner[msg.sender];\n    }\n\n    function approveProject(uint256 _projectId) public {\n        require(msg.sender == admin, \"You do not have privileges\");\n        projects[_projectId].approved = \"true\";\n    }\n\n    function rejectProject(uint256 _projectId) public {\n        require(msg.sender == admin, \"You do not have privileges\");\n        projects[_projectId].approved = \"false\";\n    }\n\n    function abortProject(uint _index) public {\n        require(projectOwners[_index] == msg.sender, \"Only project owner can abort project.\");\n\n\n        Project storage projectToDelete = projects[_index];\n\n        // Delete the project from the array\n        delete projects[_index];\n\n        // Delete the project data from storage\n        delete projectToDelete.title;\n        delete projectToDelete.description;\n        delete projectToDelete.startDate;\n        delete projectToDelete.endDate;\n        delete projectToDelete.amountToRaise;\n        delete projectToDelete.milestones;\n    }\n\n    function isProjectApproved(uint256 _projectId) public view returns (string memory) {\n        return projects[_projectId].approved;\n    }\n\n    function getProject(uint256 projectId) public view returns (Project memory) {\n        require(projectId < projects.length, \"Invalid project ID\");\n        return projects[projectId];\n    }\n\n\n    function getProjectDetails() public view returns (Project[] memory) {\n        uint256[] memory projectIds = projectsByOwner[msg.sender];\n        Project[] memory result = new Project[](projectIds.length);\n\n        for (uint256 i = 0; i < projectIds.length; i++) {\n            uint256 projectId = projectIds[i];\n            result[i] = projects[projectId];\n        }\n\n        return result;\n    }\n\n    function getAllProjects() public view returns (Project[] memory) {\n        \n        return projects;\n    }\n}\n",
  "sourcePath": "/home/mypc/Documents/mypc/Personal/B.E./uBE/Mega Project/Implementation/v 2.0/contracts/ProjectDetails.sol",
  "compiler": {
    "name": "solc",
    "version": "0.8.19+commit.7dd6d404.Emscripten.clang"
  },
  "schemaVersion": "3.4.13",
  "updatedAt": "2023-05-27T08:43:08.555Z",
  "networkType": "ethereum",
  "devdoc": {
    "kind": "dev",
    "methods": {},
    "version": 1
  },
  "userdoc": {
    "kind": "user",
    "methods": {},
    "version": 1
  }
}